:100000000C9463000C948B000C948B000C948B006C
:100010000C948B000C948B000C948B000C948B0034
:100020000C948B000C9472040C948B000C941103B0
:100030000C948B000C948B000C948B000C948B0014
:100040000C949C040C948B000C942E060C9480064B
:100050000C948B000C948B000C948B000C948B00F4
:100060000C948B000C948B000000000024002700EF
:100070002A0000000000250028002B0000000000DE
:1000800023002600290004040404040404040202DA
:100090000202020203030303030301020408102007
:1000A0004080010204081020010204081020000012
:1000B0000007000201000003040600000000000029
:1000C00000008D00EF0711241FBECFEFD8E0DEBF88
:1000D000CDBF11E0A0E0B1E0E0E6F3E102C00590A1
:1000E0000D92A032B107D9F712E0A0E2B1E001C051
:1000F0001D92A331B107E1F710E0C6ECD0E004C0D7
:100100002297FE010E94AA09C23CD107C9F70E94AA
:1001100046080C94AE090C94000080E291E00E9425
:10012000CD0183E291E00E94CD0186E291E00E9440
:10013000CD010895CF92DF92EF92FF920F931F931C
:1001400090E2C92E91E0D92EC6016AE570E00E94C6
:10015000230283E2E82E81E0F82EC7016AE570E011
:100160000E94230206E211E0C8016AE570E00E94E5
:10017000230264EF71E080E090E00E94E404C60195
:1001800060EA70E00E942302C70160EA70E00E940A
:100190002302C80160EA70E00E94230264EF71E06C
:1001A00080E090E00E94E4041F910F91FF90EF9097
:1001B000DF90CF900895CF92DF92EF92FF920F934E
:1001C0001F9330E2C32E31E0D32EC60162E370E00C
:1001D0000E94230223E2E22E21E0F22EC70162E315
:1001E00070E00E94230206E211E0C80162E370E0C1
:1001F0000E94230264EF71E080E090E00E94E4043A
:10020000C6016AE570E00E942302C7016AE570E05A
:100210000E942302C8016AE570E00E94230264EF95
:1002200071E080E090E00E94E4041F910F91FF9044
:10023000EF90DF90CF900895CF92DF92EF92FF92F0
:100240000F931F9350E2C52E51E0D52EC6016AE0F0
:1002500070E00E94230243E2E42E41E0F42EC70145
:100260006AE070E00E94230206E211E0C8016AE041
:1002700070E00E94230264EF71E080E090E00E9451
:10028000E404C60162E370E00E942302C70162E356
:1002900070E00E942302C80162E370E00E94230222
:1002A00064EF71E080E090E00E94E4041F910F9100
:1002B000FF90EF90DF90CF90089580912901909169
:1002C0002A018130910531F08230910551F0892B5E
:1002D00079F008950E94DB0081EF91E060E071E029
:1002E0000DC00E941C0181EF91E065E071E006C045
:1002F0000E949A0081EF91E069E071E00E94BD08E0
:10030000089580E291E063E070E00E940A0383E2D6
:1003100091E066E070E00E940A0386E291E069E005
:1003200070E00E940A038DE061E00E949A0581EF6F
:1003300091E040E855E260E070E00E94BB0668EEA4
:1003400073E080E090E04EEA51E00E94CF030E940B
:100350001D0410922A011092290108958EE00E9436
:10036000780590932C0180932B0122E08D3B92071E
:100370001CF082E090E007C0815991408C5291407E
:1003800038F481E090E090932A0180932901089548
:1003900010922A01109229010895FC0180912D01EB
:1003A0008C3090F480838F5F80932D01815090E09A
:1003B000FC01EE0FFF1FE80FF91FE25DFE4F88EB17
:1003C0009BE09283818308958FEF80830895FC01E1
:1003D00020812C30B8F58181992787FD909548E8D8
:1003E00050E0481B590B440F551F440F551F64170D
:1003F000750784F08281992787FD909548E552E042
:10040000481B590B440F551F440F551F64177507A0
:100410000CF4AB0142505040CA01AA2797FDA095A9
:10042000BA2F880F991FAA1FBB1F4FB7F89430E04F
:10043000F901EE0FFF1FE20FF31FE25DFE4F928303
:1004400081834FBF0895AF92BF92CF92DF92EF9218
:10045000FF920F931F93CF93DF93EC019B0182E0F8
:10046000603278070CF048C077FF03C020E030E02E
:1004700005C0653B710514F024EB30E000D000D0DE
:10048000B901882777FD8095982F2981332727FD8B
:100490003095E8E8AE2EB12CA21AB30AAA0CBB1C08
:1004A000AA0CBB1CCC24B7FCC094DC2CEA81FF272F
:1004B000E7FDF09528E532E02E1B3F0B220F331F9E
:1004C000220F331F442737FD4095542FEDB7FEB759
:1004D000218332834383548320E030E040E050E0C6
:1004E00004EBE02EF12C012D112D0E94D0089B0170
:1004F0000F900F900F900F90CE01B9010E94E7016D
:10050000DF91CF911F910F91FF90EF90DF90CF90EF
:10051000BF90AF900895CF92DF92EF92FF921F931A
:10052000CF93DF93EC01162F7A01690188818C301B
:1005300008F064C0862F61E00E949A05888190E0EF
:10054000FC01EE0FFF1FE80FF91FE25DFE4F1F7366
:100550008081807C812B808380E292E08E199F09CC
:1005600064E070E00E944409698380E699E08C1998
:100570009D0964E070E00E9444096A83A8818A2F83
:100580006CE00E943809682F70E0AB01440F551FE2
:10059000460F571F440F551F440F551F20E030E0F2
:1005A000C901840F951FFC01EE0FFF1FE80FF91F13
:1005B000E25DFE4F808186FD15C02F5F3F4F2C30DE
:1005C000310571F724C01092800082E08093810091
:1005D0001092850010928400B19A80916F00826021
:1005E00080936F008A2F90E0FC01EE0FFF1FE80F51
:1005F000F91FE25DFE4F8081806480838881DF91F6
:10060000CF911F91FF90EF90DF90CF900895672BCF
:10061000D1F2E8CF40E252E020E639E00E948B02BE
:1006200008951F920F920FB60F9211242F933F93AC
:100630004F935F936F937F938F939F93AF93BF93EA
:10064000EF93FF938091520187FF05C010928500C0
:10065000109284002BC020915201332727FD309542
:1006600080912D0190E02817390704F580915201FF
:10067000992787FD9095FC01EE0FFF1FE80FF91FEA
:10068000E25DFE4F808186FF11C080915201992763
:1006900087FD9095FC01EE0FFF1FE80FF91FE25D4B
:1006A000FE4F80818F7360E00E94D90580915201D6
:1006B0008F5F8093520120915201332727FD30959F
:1006C00080912D0190E0281739070CF04EC08091E1
:1006D00052018C300CF049C020918400309185008B
:1006E00080915201992787FD9095FC01EE0FFF1F25
:1006F000E80FF91FE25DFE4F81819281280F391FBB
:10070000309389002093880080915201992787FDBA
:100710009095FC01EE0FFF1FE80FF91FE25DFE4F01
:10072000808186FF2BC080915201992787FD90958B
:10073000FC01EE0FFF1FE80FF91FE25DFE4F808105
:100740008F7361E00E94D90519C080E49CE905C05F
:100750008091840090918500049690938900809305
:1007600088008FEF8093520109C08091840090919E
:100770008500049680549C4940F3EACFFF91EF91A5
:10078000BF91AF919F918F917F916F915F914F91A9
:100790003F912F910F900FBE0F901F9018950F93C0
:1007A0001F938B019C01809170008E7F809370005D
:1007B0008091B0008C7F8093B0008091B100877FE2
:1007C0008093B1008091B6008F7D8093B6008091B8
:1007D00070008D7F809370008091B1008460809361
:1007E000B1008091B1008C7F8093B10086E090E0F1
:1007F00090935F0180935E0101151105210531057C
:1008000069F481E090E0A0E0B0E080935301909320
:100810005401A0935501B093560108C000935301B1
:100820001093540120935501309356015093580171
:10083000409357011F910F91089510925901109202
:100840005A0110925B0110925C0110925D0180913F
:100850005E0190915F018093B200E0E7F0E080815B
:100860008160808308958091590190915A01A091EF
:100870005B01B0915C010196A11DB11D80935901EE
:1008800090935A01A0935B01B0935C0120915901B0
:1008900030915A0140915B0150915C01809153016C
:1008A00090915401A0915501B09156012817390734
:1008B0004A075B07B0F080915D01882391F481E0E5
:1008C00080935D011092590110925A0110925B01C0
:1008D00010925C01E0915701F09158010995109236
:1008E0005D0108951F920F920FB60F9211242F935E
:1008F0003F934F935F936F937F938F939F93AF93A8
:10090000BF93EF93FF9380915E0190915F0180937D
:10091000B2000E943304FF91EF91BF91AF919F917C
:100920008F917F916F915F914F913F912F910F9098
:100930000FBE0F901F9018951F920F920FB60F9237
:1009400011242F933F938F939F93AF93BF938091E5
:10095000640190916501A0916601B09167013091A9
:1009600068010196A11DB11D232F2D5F2D3720F0A9
:100970002D570196A11DB11D20936801809364013C
:1009800090936501A0936601B09367018091600127
:1009900090916101A0916201B09163010196A11D46
:1009A000B11D8093600190936101A0936201B093A7
:1009B0006301BF91AF919F918F913F912F910F90C4
:1009C0000FBE0F901F9018959B01AC017FB7F89454
:1009D0008091600190916101A0916201B0916301E9
:1009E00066B5A89B05C06F3F19F00196A11DB11D0A
:1009F0007FBFBA2FA92F982F8827860F911DA11D81
:100A0000B11D62E0880F991FAA1FBB1F6A95D1F71D
:100A1000BC012DC0FFB7F8948091600190916101F5
:100A2000A0916201B0916301E6B5A89B05C0EF3FBC
:100A300019F00196A11DB11DFFBFBA2FA92F982F44
:100A400088278E0F911DA11DB11DE2E0880F991F0F
:100A5000AA1FBB1FEA95D1F7861B970B885E9340B0
:100A6000C8F2215030404040504068517C4F211521
:100A700031054105510571F60895789484B5826079
:100A800084BD84B5816084BD85B5826085BD85B532
:100A9000816085BDEEE6F0E0808181608083E1E8E1
:100AA000F0E0108280818260808380818160808319
:100AB000E0E8F0E0808181608083E1EBF0E080811C
:100AC00084608083E0EBF0E0808181608083EAE7EE
:100AD000F0E0808184608083808182608083808177
:100AE000816080838081806880831092C100089536
:100AF000982F8E3008F09E50977080910E0182954D
:100B0000880F880F807C892B80937C0080917A00ED
:100B1000806480937A0080917A0086FDFCCF2091DA
:100B2000780040917900942F80E030E0282B392B19
:100B3000C9010895CF93DF93482F50E0CA0186562C
:100B40009F4FFC0134914A575F4FFA0184918823EB
:100B500069F190E0880F991FFC01E859FF4FA591BA
:100B6000B491FC01EE58FF4FC591D491662351F426
:100B70002FB7F8948C91932F909589238C9388812B
:100B800089230BC0623061F42FB7F8948C91932FB6
:100B9000909589238C938881832B88832FBF06C0EF
:100BA0009FB7F8948C91832B8C939FBFDF91CF914B
:100BB0000895482F50E0CA0182559F4FFC012491AF
:100BC000CA0186569F4FFC0194914A575F4FFA0124
:100BD0003491332309F440C0222351F1233071F0C2
:100BE000243028F42130A1F0223011F514C0263031
:100BF000B1F02730C1F02430D9F404C080918000D6
:100C00008F7703C0809180008F7D8093800010C01B
:100C100084B58F7702C084B58F7D84BD09C0809173
:100C2000B0008F7703C08091B0008F7D8093B000BB
:100C3000E32FF0E0EE0FFF1FEE58FF4FA591B491A8
:100C40002FB7F894662321F48C919095892302C0E4
:100C50008C91892B8C932FBF089508951F920F922A
:100C60000FB60F9211242F933F934F938F939F931F
:100C7000EF93FF938091C00082FD1DC04091C6009C
:100C80002091A9013091AA012F5F3F4F2F7330703F
:100C90008091AB019091AC012817390771F0E09178
:100CA000A901F091AA01E759FE4F40833093AA01B0
:100CB0002093A90102C08091C600FF91EF919F91FE
:100CC0008F914F913F912F910F900FBE0F901F90DA
:100CD0001895E091FD01F091FE01E05CFF4F8191DC
:100CE000919120813181805C9F4F821B930B60E446
:100CF00070E00E944409892B11F00E942D0608958E
:100D00001F920F920FB60F9211242F933F938F9340
:100D10009F93EF93FF932091ED013091EE0180912D
:100D2000EF019091F0012817390731F48091C1004B
:100D30008F7D8093C10014C0E091EF01F091F0012C
:100D4000E355FE4F20818091EF019091F0010196D3
:100D50008F7390709093F0018093EF012093C60001
:100D6000FF91EF919F918F913F912F910F900FBE27
:100D70000F901F901895AF92BF92DF92EF92FF9263
:100D80000F931F93CF93DF93EC017A018B01DD2446
:100D9000403081EE580780E0680780E0780711F066
:100DA000DD24D39491E0A92EB12CEC89FD89DD20BE
:100DB00069F0C50108A002C0880F991F0A94E2F7E4
:100DC000808360E079E08DE390E005C0108260E808
:100DD00074E88EE190E0A80197010E945709215024
:100DE000304040405040569547953795279580E1D3
:100DF0002030380720F0DD2011F0DD24D6CFE8893F
:100E0000F9893083EA89FB89208319A2EE89FF8959
:100E1000408121E030E0C9010C8C02C0880F991F8D
:100E20000A94E2F7482B4083EE89FF894081C9018B
:100E30000D8C02C0880F991F0A94E2F7482B40835B
:100E4000EE89FF894081C9010E8C02C0880F991F6D
:100E50000A94E2F7482B4083EE89FF8980810F8C4A
:100E600002C0220F331F0A94E2F720952823208323
:100E7000DF91CF911F910F91FF90EF90DF90BF9086
:100E8000AF900895DC011C96ED91FC911D97E05CFC
:100E9000FF4F8191919120813181805C9F4F821B16
:100EA000930B60E470E00E9444090895DC011C96F5
:100EB000ED91FC911D97E05CFF4F20813181E05462
:100EC000F040DF01AE5BBF4F8D919C9111972817C9
:100ED000390719F42FEF3FEF07C08D919C91E80F70
:100EE000F91F8081282F30E0C9010895DC011C968C
:100EF000ED91FC911D97E05CFF4F20813181E05422
:100F0000F040DF01AE5BBF4F8D919C911197281788
:100F1000390719F42FEF3FEF10C08D919C91119775
:100F2000E80FF91F20818D919C91119701968F7385
:100F3000907011969C938E9330E0C9010895DC0166
:100F400091968C919197882339F05496ED91FC916C
:100F50005597808186FFF9CF91961C920895CF9383
:100F6000DF93EC01EE85FF85E05CFF4F208131814E
:100F7000E054F0402F5F3F4F2F733070DF01AE5BC6
:100F8000BF4F8D919C91119728173907D1F3E05CE1
:100F9000FF4F80819181E054F040E80FF91F60839A
:100FA000EE85FF85E05CFF4F31832083EE89FF896A
:100FB000208181E090E00F8C02C0880F991F0A9475
:100FC000E2F7282B208381E089A3EC89FD898081C9
:100FD0008064808381E090E0DF91CF91089510924A
:100FE000F4011092F30188EE93E0A0E0B0E080936A
:100FF000F5019093F601A093F701B093F80183E116
:1010000091E09093F2018093F10189E691E0909351
:10101000FE018093FD018DEA91E0909300028093A0
:10102000FF0185EC90E0909302028093010284EC32
:1010300090E0909304028093030280EC90E0909300
:1010400006028093050281EC90E090930802809361
:10105000070282EC90E090930A028093090286ECEA
:1010600090E090930C0280930B0284E080930D0239
:1010700083E080930E0287E080930F0285E08093E7
:10108000100281E08093110208950895CF93DF93B9
:101090000E943D050E9445080E948101C9E6D6E0F4
:1010A0000E945D012097E1F30E946906F9CFCF927B
:1010B000DF92EF92FF920F931F93CF93DF937C0108
:1010C0006B018A01C0E0D0E00FC0D6016D916D01C7
:1010D000D701ED91FC910190F081E02DC7010995B8
:1010E000C80FD91F015010400115110571F7CE012D
:1010F000DF91CF911F910F91FF90EF90DF90CF90F4
:101100000895EF92FF920F931F938C01DC01ED91F4
:10111000FC910190F081E02D6DE009957C01D801F2
:10112000ED91FC910190F081E02DC8016AE00995F4
:101130009C012E0D3F1DC9011F910F91FF90EF9053
:101140000895CF93DF93EC016115710519F420E048
:1011500030E00FC0DB010D900020E9F71197A61BCE
:10116000B70BE881F9810280F381E02DAD0109958B
:101170009C01C901DF91CF910895EF92FF920F93E7
:101180001F937C010E94A1088C01C7010E94810865
:10119000080F191FC8011F910F91FF90EF9008953C
:1011A0002F923F924F925F926F927F928F929F9277
:1011B000AF92BF92CF92DF92EF92FF920F931F9365
:1011C000DF93CF93CDB7DEB73B014C0119012A0164
:1011D0006D897E898F89988D6A197B098C099D0993
:1011E000621A730A840A950AA40193010E941909DC
:1011F000E218F30804091509A80197010E9479096A
:101200002A0D3B1D4C1D5D1DB901CA01CF91DF9117
:101210001F910F91FF90EF90DF90CF90BF90AF9014
:101220009F908F907F906F905F904F903F902F9006
:101230000895629FD001739FF001829FE00DF11D20
:10124000649FE00DF11D929FF00D839FF00D749F40
:10125000F00D659FF00D9927729FB00DE11DF91FEC
:10126000639FB00DE11DF91FBD01CF011124089549
:10127000991B79E004C0991F961708F0961B881FE8
:101280007A95C9F78095089597FB092E07260AD00D
:1012900077FD04D049D006D000201AF470956195EE
:1012A0007F4F0895F6F7909581959F4F0895A1E29D
:1012B0001A2EAA1BBB1BFD010DC0AA1FBB1FEE1FD0
:1012C000FF1FA217B307E407F50720F0A21BB30B1B
:1012D000E40BF50B661F771F881F991F1A9469F797
:1012E00060957095809590959B01AC01BD01CF01F3
:1012F000089597FB092E05260ED057FD04D0D7DFA1
:101300000AD0001C38F450954095309521953F4FF8
:101310004F4F5F4F0895F6F79095809570956195C2
:101320007F4F8F4F9F4F0895AA1BBB1B51E107C0F2
:10133000AA1FBB1FA617B70710F0A61BB70B881F65
:10134000991F5A95A9F780959095BC01CD010895F4
:10135000EE0FFF1F0590F491E02D0994F894FFCF54
:1013600077616C6B0072756E0073746F70000100B2
:10137000000000AF0757084207760756079F07008F
:00000001FF
