:100000000C9462000C948A000C948A000C948A0070
:100010000C948A000C948A000C948A000C948A0038
:100020000C948A000C948A000C948A000C948A0028
:100030000C948A000C948A000C948A000C948A0018
:100040000C94A5010C948A000C9497030C94E9037A
:100050000C948A000C948A000C948A000C948A00F8
:100060000C948A000C948A000000000024002700F1
:100070002A0000000000250028002B0000000000DE
:1000800023002600290004040404040404040202DA
:100090000202020203030303030301020408102007
:1000A0004080010204081020010204081020000012
:1000B0000007000201000003040600000000000029
:1000C0000000580511241FBECFEFD8E0DEBFCDBF22
:1000D00011E0A0E0B1E0ECEAFCE002C005900D9276
:1000E000AA31B107D9F711E0AAE1B1E001C01D9230
:1000F000AB3DB107E1F710E0C4ECD0E004C02297BB
:10010000FE010E945006C23CD107C9F70E94AF050C
:100110000C9454060C940000209126013091270184
:10012000F901EE0FFF1FE45EFE4F91838083C9014A
:10013000019665E070E00E94EA05909327018093A4
:10014000260160911E0170911F01882777FD80951F
:10015000982F20911C0130911D01442737FD4095B7
:10016000542F620F731F841F951F2091200130911F
:100170002101442737FD4095542F620F731F841FC0
:10018000951F2091220130912301442737FD40958E
:10019000542F620F731F841F951F209124013091EB
:1001A0002501442737FD4095542F620F731F841F8C
:1001B000951F25E030E040E050E00E941F06C90195
:1001C000089586E060E00E94420387E060E00E94BC
:1001D000420384E060E00E94420385E060E00E9408
:1001E000420385E090E090931B0180931A010895EB
:1001F00080911A0190911B01039741F00E94E10048
:1002000064E670E080E090E00E94ED0186E061E04D
:100210000E94420387E060E00E94420384E060E0C5
:100220000E94420385E061E00E94420383E090E087
:1002300090931B0180931A01089580911A01909167
:100240001B01029741F00E94E10064E670E080E04B
:1002500090E00E94ED0186E060E00E94420387E0AA
:1002600061E00E94420384E060E00E94420385E076
:1002700061E00E94420382E090E090931B01809332
:100280001A01089580911A0190911B01019741F084
:100290000E94E10064E670E080E090E00E94ED01E1
:1002A00086E061E00E94420387E060E00E94420332
:1002B00084E061E00E94420385E060E00E94420326
:1002C00081E090E090931B0180931A01089583E1EF
:1002D0000E9481020E948C00855F91408CF00E94F8
:1002E0001D0168EC70E080E090E00E94ED010E944A
:1002F000F8006CE271E080E090E00E94ED0108956A
:100300000E9442010895CF93DF9385E090E090939F
:100310001B0180931A0183E062E370E00E94A30254
:10032000C0E0D1E003C061E00E940303899199918C
:100330000097C9F789EB91E040E855E260E070E092
:100340000E942404DF91CF9108951F920F920FB65F
:100350000F9211242F933F938F939F93AF93BF934B
:1003600080912C0190912D01A0912E01B0912F012F
:10037000309130010196A11DB11D232F2D5F2D3726
:1003800020F02D570196A11DB11D209330018093BF
:100390002C0190932D01A0932E01B0932F018091F9
:1003A000280190912901A0912A01B0912B01019679
:1003B000A11DB11D8093280190932901A0932A01CA
:1003C000B0932B01BF91AF919F918F913F912F914E
:1003D0000F900FBE0F901F9018959B01AC017FB737
:1003E000F8948091280190912901A0912A01B0915F
:1003F0002B0166B5A89B05C06F3F19F00196A11DA2
:10040000B11D7FBFBA2FA92F982F8827860F911D66
:10041000A11DB11D62E0880F991FAA1FBB1F6A951D
:10042000D1F7BC012DC0FFB7F894809128019091BD
:100430002901A0912A01B0912B01E6B5A89B05C026
:10044000EF3F19F00196A11DB11DFFBFBA2FA92FD3
:10045000982F88278E0F911DA11DB11DE2E0880FF6
:10046000991FAA1FBB1FEA95D1F7861B970B885EC1
:100470009340C8F2215030404040504068517C4F7A
:10048000211531054105510571F60895789484B51B
:10049000826084BD84B5816084BD85B5826085BD80
:1004A00085B5816085BDEEE6F0E080818160808366
:1004B000E1E8F0E010828081826080838081816049
:1004C0008083E0E8F0E0808181608083E1EBF0E010
:1004D000808184608083E0EBF0E0808181608083B4
:1004E000EAE7F0E08081846080838081826080839D
:1004F0008081816080838081806880831092C100C8
:100500000895982F8E3008F09E50977080910801C2
:100510008295880F880F807C892B80937C00809146
:100520007A00806480937A0080917A0086FDFCCF07
:100530002091780040917900942F80E030E0282BC2
:10054000392BC90108951F93CF93DF93182FEB0127
:1005500061E00E940303209709F44AC0CF3FD10510
:1005600009F449C0E12FF0E0E255FF4F8491833058
:10057000C1F0843028F4813051F08230B1F50CC0E4
:10058000863019F1873049F1843079F514C084B58B
:10059000806884BDC7BD33C084B5806284BDC8BDDA
:1005A0002EC080918000806880938000D093890065
:1005B000C093880024C08091800080628093800076
:1005C000D0938B00C0938A001AC08091B0008068DD
:1005D0008093B000C093B30012C08091B0008062DD
:1005E0008093B000C093B4000AC0C038D1051CF499
:1005F000812F60E002C0812F61E00E944203DF9101
:10060000CF911F910895CF93DF93482F50E0CA01F7
:1006100086569F4FFC0134914A575F4FFA018491EF
:10062000882369F190E0880F991FFC01E859FF4F7A
:10063000A591B491FC01EE58FF4FC591D49166236A
:1006400051F42FB7F8948C91932F909589238C9324
:10065000888189230BC0623061F42FB7F8948C91A4
:10066000932F909589238C938881832B88832FBF28
:1006700006C09FB7F8948C91832B8C939FBFDF911A
:10068000CF910895482F50E0CA0182559F4FFC0139
:100690002491CA0186569F4FFC0194914A575F4F9F
:1006A000FA013491332309F440C0222351F123305D
:1006B00071F0243028F42130A1F0223011F514C05B
:1006C0002630B1F02730C1F02430D9F404C0809135
:1006D00080008F7703C0809180008F7D80938000A1
:1006E00010C084B58F7702C084B58F7D84BD09C0EA
:1006F0008091B0008F7703C08091B0008F7D809390
:10070000B000E32FF0E0EE0FFF1FEE58FF4FA59172
:10071000B4912FB7F894662321F48C919095892396
:1007200002C08C91892B8C932FBF089508951F923E
:100730000F920FB60F9211242F933F934F938F93E5
:100740009F93EF93FF938091C00082FD1DC0409165
:10075000C60020917101309172012F5F3F4F2F73BE
:10076000307080917301909174012817390771F0EE
:10077000E0917101F0917201EF5CFE4F4083309384
:1007800072012093710102C08091C600FF91EF9128
:100790009F918F914F913F912F910F900FBE0F908E
:1007A0001F901895E091C501F091C601E05CFF4FE4
:1007B0008191919120813181805C9F4F821B930BAD
:1007C00060E470E00E94EA05892B11F00E94960314
:1007D00008951F920F920FB60F9211242F933F93FB
:1007E0008F939F93EF93FF932091B5013091B601C2
:1007F0008091B7019091B8012817390731F48091A1
:10080000C1008F7D8093C10014C0E091B701F091C9
:10081000B801EB58FE4F20818091B7019091B8014B
:1008200001968F7390709093B8018093B7012093D5
:10083000C600FF91EF919F918F913F912F910F9063
:100840000FBE0F901F901895AF92BF92DF92EF925C
:10085000FF920F931F93CF93DF93EC017A018B01EB
:10086000DD24403081EE580780E0680780E078079B
:1008700011F0DD24D39491E0A92EB12CEC89FD89EF
:10088000DD2069F0C50108A002C0880F991F0A94F5
:10089000E2F7808360E079E08DE390E005C01082AC
:1008A00060E874E88EE190E0A80197010E94FD05E0
:1008B00021503040404050405695479537952795F8
:1008C00080E12030380720F0DD2011F0DD24D6CF84
:1008D000E889F9893083EA89FB89208319A2EE89A6
:1008E000FF89408121E030E0C9010C8C02C0880FF3
:1008F000991F0A94E2F7482B4083EE89FF894081D3
:10090000C9010D8C02C0880F991F0A94E2F7482B89
:100910004083EE89FF894081C9010E8C02C0880F97
:10092000991F0A94E2F7482B4083EE89FF89808162
:100930000F8C02C0220F331F0A94E2F72095282360
:100940002083DF91CF911F910F91FF90EF90DF9067
:10095000BF90AF900895DC011C96ED91FC911D971E
:10096000E05CFF4F8191919120813181805C9F4FAC
:10097000821B930B60E470E00E94EA050895DC019D
:100980001C96ED91FC911D97E05CFF4F2081318119
:10099000E054F040DF01AE5BBF4F8D919C91119709
:1009A0002817390719F42FEF3FEF07C08D919C915D
:1009B000E80FF91F8081282F30E0C9010895DC017C
:1009C0001C96ED91FC911D97E05CFF4F20813181D9
:1009D000E054F040DF01AE5BBF4F8D919C911197C9
:1009E0002817390719F42FEF3FEF10C08D919C9114
:1009F0001197E80FF91F20818D919C911197019615
:100A00008F73907011969C938E9330E0C901089576
:100A1000DC0191968C919197882339F05496ED9151
:100A2000FC915597808186FFF9CF91961C9208958D
:100A3000CF93DF93EC01EE85FF85E05CFF4F2081D3
:100A40003181E054F0402F5F3F4F2F733070DF0152
:100A5000AE5BBF4F8D919C91119728173907D1F349
:100A6000E05CFF4F80819181E054F040E80FF91F76
:100A70006083EE85FF85E05CFF4F31832083EE8944
:100A8000FF89208181E090E00F8C02C0880F991FC0
:100A90000A94E2F7282B208381E089A3EC89FD8961
:100AA00080818064808381E090E0DF91CF91089520
:100AB0001092BC011092BB0188EE93E0A0E0B0E080
:100AC0008093BD019093BE01A093BF01B093C0017C
:100AD0008DE091E09093BA018093B90181E391E0B8
:100AE0009093C6018093C50185E791E09093C8017A
:100AF0008093C70185EC90E09093CA018093C9016F
:100B000084EC90E09093CC018093CB0180EC90E05A
:100B10009093CE018093CD0181EC90E09093D00131
:100B20008093CF0182EC90E09093D2018093D10129
:100B300086EC90E09093D4018093D30184E080937D
:100B4000D50183E08093D60187E08093D70185E0CB
:100B50008093D80181E08093D90108950895CF93BF
:100B6000DF930E9446020E94AE050E948301C2EDFF
:100B7000D3E00E9467012097E1F30E94D203F9CFEE
:100B8000CF92DF92EF92FF920F931F93CF93DF9359
:100B90007C016B018A01C0E0D0E00FC0D6016D91ED
:100BA0006D01D701ED91FC910190F081E02DC7011D
:100BB0000995C80FD91F015010400115110571F793
:100BC000CE01DF91CF911F910F91FF90EF90DF90B9
:100BD000CF90089597FB092E07260AD077FD04D001
:100BE00049D006D000201AF4709561957F4F089582
:100BF000F6F7909581959F4F0895A1E21A2EAA1BB2
:100C0000BB1BFD010DC0AA1FBB1FEE1FFF1FA217BC
:100C1000B307E407F50720F0A21BB30BE40BF50BB9
:100C2000661F771F881F991F1A9469F76095709542
:100C3000809590959B01AC01BD01CF01089597FB74
:100C4000092E05260ED057FD04D0D7DF0AD0001C90
:100C500038F450954095309521953F4F4F4F5F4F59
:100C60000895F6F790958095709561957F4F8F4F19
:100C70009F4F0895AA1BBB1B51E107C0AA1FBB1FB2
:100C8000A617B70710F0A61BB70B881F991F5A9518
:100C9000A9F780959095BC01CD010895EE0FFF1F37
:0C0CA0000590F491E02D0994F894FFCF2A
:100CAC00040005000600070001000000001805C044
:0A0CBC0005AB04DF04BF04080500C7
:00000001FF
