:100000000C9462000C948A000C948A000C948A0070
:100010000C948A000C948A000C948A000C948A0038
:100020000C948A000C948A000C948A000C948A0028
:100030000C948A000C948A000C948A000C948A0018
:100040000C9462010C948A000C9454030C94A60343
:100050000C948A000C948A000C948A000C948A00F8
:100060000C948A000C948A000000000024002700F1
:100070002A0000000000250028002B0000000000DE
:1000800023002600290004040404040404040202DA
:100090000202020203030303030301020408102007
:1000A0004080010204081020010204081020000012
:1000B0000007000201000003040600000000000029
:1000C0000000150511241FBECFEFD8E0DEBFCDBF65
:1000D00011E0A0E0B1E0E2E5FEE002C005900D9283
:1000E000AA31B107D9F711E0AAE1B1E001C01D9230
:1000F000AF3CB107E1F710E0C4ECD0E004C02297B8
:10010000FE010E942307C23CD107C9F70E946C057B
:100110000C9427070C94000086E060E00E94FF0228
:1001200087E060E00E94FF0284E060E00E94FF023E
:1001300085E060E00E94FF0285E090E090931B0163
:1001400080931A01089580911A0190911B010397E1
:1001500041F00E948C0064E670E080E090E00E9434
:10016000AA0186E061E00E94FF0287E060E00E9451
:10017000FF0284E060E00E94FF0285E061E00E94EF
:10018000FF0283E090E090931B0180931A01089591
:1001900080911A0190911B01029741F00E948C00FE
:1001A00064E670E080E090E00E94AA0186E060E0F2
:1001B0000E94FF0287E061E00E94FF0284E060E0AD
:1001C0000E94FF0285E061E00E94FF0282E090E071
:1001D00090931B0180931A01089580911A019091C8
:1001E0001B01019741F00E948C0064E670E080E002
:1001F00090E00E94AA0186E061E00E94FF0287E091
:1002000060E00E94FF0284E061E00E94FF0285E05E
:1002100060E00E94FF028DEA91E060E071E00E94E0
:10022000A60681E090E090931B0180931A01089547
:100230000F931F9383E10E943E028C018DEA91E0AF
:10024000B8014AE050E00E948706055F11408CF03B
:100250000E94C80068EC70E080E090E00E94AA0173
:100260000E94A3006CE271E080E090E00E94AA018D
:1002700002C00E94ED001F910F91089585E090E06B
:1002800090931B0180931A0183E06AE570E00E945D
:10029000600284E061E00E94C00285E061E00E94AB
:1002A000C00286E061E00E94C00287E061E00E9437
:1002B000C0028DEA91E040E855E260E070E00E9403
:1002C000E10308951F920F920FB60F9211242F93FE
:1002D0003F938F939F93AF93BF9380912001909111
:1002E0002101A0912201B0912301309124010196B6
:1002F000A11DB11D232F2D5F2D3720F02D57019605
:10030000A11DB11D20932401809320019093210110
:10031000A0932201B093230180911C0190911D01B3
:10032000A0911E01B0911F010196A11DB11D8093E6
:100330001C0190931D01A0931E01B0931F01BF915A
:10034000AF919F918F913F912F910F900FBE0F9082
:100350001F9018959B01AC017FB7F89480911C0108
:1003600090911D01A0911E01B0911F0166B5A89B3F
:1003700005C06F3F19F00196A11DB11D7FBFBA2FB7
:10038000A92F982F8827860F911DA11DB11D62E00E
:10039000880F991FAA1FBB1F6A95D1F7BC012DC0FA
:1003A000FFB7F89480911C0190911D01A0911E014E
:1003B000B0911F01E6B5A89B05C0EF3F19F001966B
:1003C000A11DB11DFFBFBA2FA92F982F88278E0F0F
:1003D000911DA11DB11DE2E0880F991FAA1FBB1F2F
:1003E000EA95D1F7861B970B885E9340C8F221509F
:1003F00030404040504068517C4F21153105410547
:10040000510571F60895789484B5826084BD84B5F1
:10041000816084BD85B5826085BD85B5816085BDFF
:10042000EEE6F0E0808181608083E1E8F0E0108218
:10043000808182608083808181608083E0E8F0E059
:10044000808181608083E1EBF0E080818460808343
:10045000E0EBF0E0808181608083EAE7F0E080817A
:1004600084608083808182608083808181608083DA
:100470008081806880831092C1000895982F8E300B
:1004800008F09E509770809108018295880F880F20
:10049000807C892B80937C0080917A00806480939B
:1004A0007A0080917A0086FDFCCF209178004091FF
:1004B0007900942F80E030E0282B392BC901089572
:1004C0001F93CF93DF93182FEB0161E00E94C002CE
:1004D000209709F44AC0CF3FD10509F449C0E12F64
:1004E000F0E0E255FF4F84918330C1F0843028F46E
:1004F000813051F08230B1F50CC0863019F187306F
:1005000049F1843079F514C084B5806884BDC7BDD5
:1005100033C084B5806284BDC8BD2EC08091800088
:10052000806880938000D0938900C093880024C0A5
:1005300080918000806280938000D0938B00C09374
:100540008A001AC08091B00080688093B000C09388
:10055000B30012C08091B00080628093B000C0935D
:10056000B4000AC0C038D1051CF4812F60E002C07D
:10057000812F61E00E94FF02DF91CF911F910895CA
:10058000CF93DF93482F50E0CA0186569F4FFC015E
:1005900034914A575F4FFA018491882369F190E0C2
:1005A000880F991FFC01E859FF4FA591B491FC01F8
:1005B000EE58FF4FC591D491662351F42FB7F894AC
:1005C0008C91932F909589238C93888189230BC0DC
:1005D000623061F42FB7F8948C91932F9095892312
:1005E0008C938881832B88832FBF06C09FB7F89494
:1005F0008C91832B8C939FBFDF91CF910895482FCF
:1006000050E0CA0182559F4FFC012491CA018656D1
:100610009F4FFC0194914A575F4FFA013491332365
:1006200009F440C0222351F1233071F0243028F422
:100630002130A1F0223011F514C02630B1F027305E
:10064000C1F02430D9F404C0809180008F7703C0BA
:10065000809180008F7D8093800010C084B58F775B
:1006600002C084B58F7D84BD09C08091B0008F77B2
:1006700003C08091B0008F7D8093B000E32FF0E045
:10068000EE0FFF1FEE58FF4FA591B4912FB7F894CE
:10069000662321F48C919095892302C08C91892B3B
:1006A0008C932FBF089508951F920F920FB60F924B
:1006B00011242F933F934F938F939F93EF93FF9327
:1006C0008091C00082FD1DC04091C600209165014F
:1006D000309166012F5F3F4F2F733070809167011B
:1006E000909168012817390771F0E0916501F09148
:1006F0006601EB5DFE4F40833093660120936501F8
:1007000002C08091C600FF91EF919F918F914F9110
:100710003F912F910F900FBE0F901F901895E09171
:10072000B901F091BA01E05CFF4F81919191208174
:100730003181805C9F4F821B930B60E470E00E94CC
:10074000D806892B11F00E94530308951F920F922F
:100750000FB60F9211242F933F938F939F93EF9394
:10076000FF932091A9013091AA018091AB01909152
:10077000AC012817390731F48091C1008F7D809337
:10078000C10014C0E091AB01F091AC01E759FE4FFC
:1007900020818091AB019091AC0101968F73907094
:1007A0009093AC018093AB012093C600FF91EF9131
:1007B0009F918F913F912F910F900FBE0F901F909F
:1007C0001895AF92BF92DF92EF92FF920F931F9313
:1007D000CF93DF93EC017A018B01DD24403081EE71
:1007E000580780E0680780E0780711F0DD24D39493
:1007F00091E0A92EB12CEC89FD89DD2069F0C501BD
:1008000008A002C0880F991F0A94E2F7808360E075
:1008100079E08DE390E005C0108260E874E88EE135
:1008200090E0A80197010E94EB0621503040404023
:100830005040569547953795279580E120303807E9
:1008400020F0DD2011F0DD24D6CFE889F98930834E
:10085000EA89FB89208319A2EE89FF89408121E082
:1008600030E0C9010C8C02C0880F991F0A94E2F78E
:10087000482B4083EE89FF894081C9010D8C02C05D
:10088000880F991F0A94E2F7482B4083EE89FF896D
:100890004081C9010E8C02C0880F991F0A94E2F7AB
:1008A000482B4083EE89FF8980810F8C02C0220F84
:1008B000331F0A94E2F7209528232083DF91CF91FC
:1008C0001F910F91FF90EF90DF90BF90AF90089530
:1008D000DC011C96ED91FC911D97E05CFF4F81912E
:1008E000919120813181805C9F4F821B930B60E44A
:1008F00070E00E94D8060895DC011C96ED91FC91F1
:100900001D97E05CFF4F20813181E054F040DF0112
:10091000AE5BBF4F8D919C9111972817390719F441
:100920002FEF3FEF07C08D919C91E80FF91F808159
:10093000282F30E0C9010895DC011C96ED91FC914F
:100940001D97E05CFF4F20813181E054F040DF01D2
:10095000AE5BBF4F8D919C9111972817390719F401
:100960002FEF3FEF10C08D919C911197E80FF91F69
:1009700020818D919C91119701968F7390701196A3
:100980009C938E9330E0C9010895DC0191968C917F
:100990009197882339F05496ED91FC915597808179
:1009A00086FFF9CF91961C920895CF93DF93EC01C7
:1009B000EE85FF85E05CFF4F20813181E054F040FF
:1009C0002F5F3F4F2F733070DF01AE5BBF4F8D91B4
:1009D0009C91119728173907D1F3E05CFF4F808174
:1009E0009181E054F040E80FF91F6083EE85FF85A8
:1009F000E05CFF4F31832083EE89FF89208181E015
:100A000090E00F8C02C0880F991F0A94E2F7282B00
:100A1000208381E089A3EC89FD89808180648083C3
:100A200081E090E0DF91CF9108951092B001109293
:100A3000AF0188EE93E0A0E0B0E08093B101909325
:100A4000B201A093B301B093B4018DE091E0909313
:100A5000AE018093AD0185E291E09093BA0180935D
:100A6000B90189E691E09093BC018093BB0185ECCC
:100A700090E09093BE018093BD0184EC90E0909350
:100A8000C0018093BF0180EC90E09093C2018093FD
:100A9000C10181EC90E09093C4018093C30182EC8A
:100AA00090E09093C6018093C50186EC90E090930E
:100AB000C8018093C70184E08093C90183E08093DB
:100AC000CA0187E08093CB0185E08093CC0181E06F
:100AD0008093CD0108950895CF93DF930E94030280
:100AE0000E946B050E943E01CFE8D3E00E941801EE
:100AF0002097E1F30E948F03F9CFCF92DF92EF921C
:100B0000FF920F931F93CF93DF937C016B018A01B8
:100B1000C0E0D0E00FC0D6016D916D01D701ED911D
:100B2000FC910190F081E02DC7010995C80FD91FF4
:100B3000015010400115110571F7CE01DF91CF91E1
:100B40001F910F91FF90EF90DF90CF900895EF925B
:100B5000FF920F931F938C01DC01ED91FC910190AA
:100B6000F081E02D6DE009957C01D801ED91FC91BB
:100B70000190F081E02DC8016AE009959C012E0DDD
:100B80003F1DC9011F910F91FF90EF900895CF93E2
:100B9000DF93EC016115710519F420E030E00FC01E
:100BA000DB010D900020E9F71197A61BB70BE88138
:100BB000F9810280F381E02DAD0109959C01C90105
:100BC000DF91CF9108954F925F927F928F929F9283
:100BD000AF92BF92CF92DF92EF92FF920F931F934B
:100BE000DF93CF93CDB7DEB7A1970FB6F894DEBFF2
:100BF0000FBECDBF2C01742ECB01223008F42AE0A9
:100C000019A231E2C32ED12CCC0EDD1E822E9924E6
:100C1000AA24BB24672D752FA50194010E94EB0621
:100C200079018A01C801B701A50194010E94B906A2
:100C3000472D461B0894C108D1084A3014F4405D82
:100C400001C0495CF6014083E114F104010511057E
:100C500021F07E2C5F2DC801DDCFC201B6010E94BC
:100C6000C705A1960FB6F894DEBF0FBECDBFCF91DA
:100C7000DF911F910F91FF90EF90DF90CF90BF9089
:100C8000AF909F908F907F905F904F900895CF92FC
:100C9000DF92EF92FF920F931F93CF93DF93EC01BC
:100CA0006A017B012115310541F4E881F981019048
:100CB000F081E02D642F09951FC02A303105D1F451
:100CC00077FF17C0E881F9810190F081E02D6DE296
:100CD00009958C0144275527BA014C195D096E0905
:100CE0007F09CE012AE00E94E3059801280F391FF1
:100CF00004C02AE00E94E3059C01C901DF91CF9165
:100D00001F910F91FF90EF90DF90CF900895CF92B9
:100D1000DF92EF92FF920F931F936C017B019A0178
:100D20000027F7FC0095102FB801A7010E94470685
:100D30008C01C6010E94A705080F191FC8011F9149
:100D40000F91FF90EF90DF90CF900895EF92FF9278
:100D50000F931F937C010E94C7058C01C7010E945D
:100D6000A705080F191FC8011F910F91FF90EF9061
:100D70000895629FD001739FF001829FE00DF11DE5
:100D8000649FE00DF11D929FF00D839FF00D749F05
:100D9000F00D659FF00D9927729FB00DE11DF91FB1
:100DA000639FB00DE11DF91FBD01CF01112408950E
:100DB00097FB092E07260AD077FD04D02ED006D047
:100DC00000201AF4709561957F4F0895F6F790957D
:100DD00081959F4F0895A1E21A2EAA1BBB1BFD010E
:100DE0000DC0AA1FBB1FEE1FFF1FA217B307E4070A
:100DF000F50720F0A21BB30BE40BF50B661F771F62
:100E0000881F991F1A9469F7609570958095909541
:100E10009B01AC01BD01CF010895AA1BBB1B51E191
:100E200007C0AA1FBB1FA617B70710F0A61BB70B5A
:100E3000881F991F5A95A9F780959095BC01CD01FF
:100E40000895EE0FFF1F0590F491E02D0994F8949A
:020E5000FFCFD2
:100E5200666F7277617264000100000000D5047D44
:0A0E62000568049C047C04C504002C
:00000001FF
