:100000000C9463000C948B000C948B000C948B006C
:100010000C948B000C948B000C948B000C948B0034
:100020000C948B000C948B000C948B000C948B0024
:100030000C948B000C9411010C948B000C948B008D
:100040000C9447020C948B000C9417040C946904D4
:100050000C948B000C948B000C948B000C948B00F4
:100060000C948B000C948B000000000024002700EF
:100070002A0000000000250028002B0000000000DE
:1000800023002600290004040404040404040202DA
:100090000202020203030303030301020408102007
:1000A0004080010204081020010204081020000012
:1000B0000007000201000003040600000000000029
:1000C00000008D00D80511241FBECFEFD8E0DEBFA1
:1000D000CDBF11E0A0E0B1E0E8EDFFE002C0059087
:1000E0000D92A631B107D9F711E0A6E1B1E001C048
:1000F0001D92AB3DB107E1F710E0C6ECD0E004C0C3
:100100002297FE010E94E607C23CD107C9F70E9470
:100110002F060C94EA070C9400000F931F9389E1BB
:1001200091E066E070E047E050E024E030E005E078
:1001300010E00E9419021F910F91089589EB91E040
:100140000E945F058636910501F1873691053CF4E2
:100150008136910559F08436910501F511C0873635
:100160009105C1F083379105C9F405C089E191E09B
:100170000E94EA01089589E191E00E94BB0108957F
:1001800089E191E00E948C01089589E191E00E944B
:100190005D01089589E191E00E943801089560E0D1
:1001A00080911801882309F461E0609318018DE0C3
:1001B0000E94C203089585E090E090931701809318
:1001C000160183E062E370E00E94230389EB91E073
:1001D00040E855E260E070E00E94A4048DE061E038
:1001E0000E948303E1E8F0E080E1808310928000C8
:1001F00083E0809325018EE399E49093240180931A
:100200002301909387008093860083E180838FECA5
:1002100090E0909327018093260181E080936F0006
:1002200008951F920F920FB60F9211242F933F93B0
:100230004F935F936F937F938F939F93AF93BF93EE
:10024000EF93FF93E0912601F09127010995FF912B
:10025000EF91BF91AF919F918F917F916F915F913E
:100260004F913F912F910F900FBE0F901F901895B7
:100270000F931F938C01FC01808160E00E94C203F8
:10028000F801828160E00E94C203F801848160E08D
:100290000E94C203F801868160E00E94C20385E0EB
:1002A00090E0F8019187808789EB91E060E071E050
:1002B0000E9469071F910F910895CF93DF93EC017E
:1002C00088859985049749F4CE010E9438016AE037
:1002D00070E080E090E00E948F02888160E00E94E0
:1002E000C2038A8160E00E94C2038C8161E00E94A7
:1002F000C2038E8160E00E94C20384E090E099878F
:10030000888789EB91E064E070E04AE050E00E9469
:100310004A07DF91CF910895CF93DF93EC01888551
:100320009985039749F0CE010E9438016AE070E098
:1003300080E090E00E948F02888161E00E94C20309
:100340008A8160E00E94C2038C8160E00E94C20347
:100350008E8160E00E94C20383E090E099878887E5
:1003600089EB91E063E070E04AE050E00E944A07C8
:10037000DF91CF910895CF93DF93EC018885998524
:10038000029749F0CE010E9438016AE070E080E0F7
:1003900090E00E948F02888160E00E94C2038A81FF
:1003A00061E00E94C2038C8160E00E94C2038E81E2
:1003B00061E00E94C20382E090E09987888789EB20
:1003C00091E062E070E04AE050E00E944A07DF916D
:1003D000CF910895CF93DF93EC018885998501979C
:1003E00049F0CE010E9438016AE070E080E090E0C0
:1003F0000E948F02888161E00E94C2038A8160E0CE
:100400000E94C2038C8161E00E94C2038E8160E081
:100410000E94C20381E090E09987888789EB91E090
:1004200061E070E04AE050E00E944A07DF91CF911E
:100430000895CF92DF92EF92FF920F931F937C016A
:10044000862FD42EC22EF70160837183428353839B
:10045000248335830683178361E00E9483038D2DF7
:1004600061E00E9483038C2D61E00E948303802F52
:1004700061E00E94830385E090E0F7019187808727
:100480001F910F91FF90EF90DF90CF9008951F92F2
:100490000F920FB60F9211242F933F938F939F9338
:1004A000AF93BF9380912C0190912D01A0912E01CB
:1004B000B0912F01309130010196A11DB11D232F64
:1004C0002D5F2D3720F02D570196A11DB11D2093D2
:1004D000300180932C0190932D01A0932E01B093B5
:1004E0002F018091280190912901A0912A01B091BA
:1004F0002B010196A11DB11D809328019093290124
:10050000A0932A01B0932B01BF91AF919F918F913E
:100510003F912F910F900FBE0F901F9018959B0148
:10052000AC017FB7F8948091280190912901A091A6
:100530002A01B0912B0166B5A89B05C06F3F19F049
:100540000196A11DB11D7FBFBA2FA92F982F882713
:10055000860F911DA11DB11D62E0880F991FAA1F72
:10056000BB1F6A95D1F7BC012DC0FFB7F8948091ED
:10057000280190912901A0912A01B0912B01E6B5A3
:10058000A89B05C0EF3F19F00196A11DB11DFFBF4B
:10059000BA2FA92F982F88278E0F911DA11DB11D4D
:1005A000E2E0880F991FAA1FBB1FEA95D1F7861BAF
:1005B000970B885E9340C8F2215030404040504035
:1005C00068517C4F211531054105510571F608959B
:1005D000789484B5826084BD84B5816084BD85B51E
:1005E000826085BD85B5816085BDEEE6F0E08081E5
:1005F00081608083E1E8F0E0108280818260808306
:10060000808181608083E0E8F0E080818160808388
:10061000E1EBF0E0808184608083E0EBF0E08081BA
:1006200081608083EAE7F0E080818460808380815C
:100630008260808380818160808380818068808304
:100640001092C10008951F93CF93DF93182FEB01F1
:1006500061E00E948303209709F44AC0CF3FD1058F
:1006600009F449C0E12FF0E0E255FF4F8491833057
:10067000C1F0843028F4813051F08230B1F50CC0E3
:10068000863019F1873049F1843079F514C084B58A
:10069000806884BDC7BD33C084B5806284BDC8BDD9
:1006A0002EC080918000806880938000D093890064
:1006B000C093880024C08091800080628093800075
:1006C000D0938B00C0938A001AC08091B0008068DC
:1006D0008093B000C093B30012C08091B0008062DC
:1006E0008093B000C093B4000AC0C038D1051CF498
:1006F000812F60E002C0812F61E00E94C203DF9180
:10070000CF911F910895CF93DF93482F50E0CA01F6
:1007100086569F4FFC0134914A575F4FFA018491EE
:10072000882369F190E0880F991FFC01E859FF4F79
:10073000A591B491FC01EE58FF4FC591D491662369
:1007400051F42FB7F8948C91932F909589238C9323
:10075000888189230BC0623061F42FB7F8948C91A3
:10076000932F909589238C938881832B88832FBF27
:1007700006C09FB7F8948C91832B8C939FBFDF9119
:10078000CF910895482F50E0CA0182559F4FFC0138
:100790002491CA0186569F4FFC0194914A575F4F9E
:1007A000FA013491332309F440C0222351F123305C
:1007B00071F0243028F42130A1F0223011F514C05A
:1007C0002630B1F02730C1F02430D9F404C0809134
:1007D00080008F7703C0809180008F7D80938000A0
:1007E00010C084B58F7702C084B58F7D84BD09C0E9
:1007F0008091B0008F7703C08091B0008F7D80938F
:10080000B000E32FF0E0EE0FFF1FEE58FF4FA59171
:10081000B4912FB7F894662321F48C919095892395
:1008200002C08C91892B8C932FBF089508951F923D
:100830000F920FB60F9211242F933F934F938F93E4
:100840009F93EF93FF938091C00082FD1DC0409164
:10085000C60020917101309172012F5F3F4F2F73BD
:10086000307080917301909174012817390771F0ED
:10087000E0917101F0917201EF5CFE4F4083309383
:1008800072012093710102C08091C600FF91EF9127
:100890009F918F914F913F912F910F900FBE0F908D
:1008A0001F901895E091C501F091C601E05CFF4FE3
:1008B0008191919120813181805C9F4F821B930BAC
:1008C00060E470E00E949B07892B11F00E941604DF
:1008D00008951F920F920FB60F9211242F933F93FA
:1008E0008F939F93EF93FF932091B5013091B601C1
:1008F0008091B7019091B8012817390731F48091A0
:10090000C1008F7D8093C10014C0E091B701F091C8
:10091000B801EB58FE4F20818091B7019091B8014A
:1009200001968F7390709093B8018093B7012093D4
:10093000C600FF91EF919F918F913F912F910F9062
:100940000FBE0F901F901895AF92BF92DF92EF925B
:10095000FF920F931F93CF93DF93EC017A018B01EA
:10096000DD24403081EE580780E0680780E078079A
:1009700011F0DD24D39491E0A92EB12CEC89FD89EE
:10098000DD2069F0C50108A002C0880F991F0A94F4
:10099000E2F7808360E079E08DE390E005C01082AB
:1009A00060E874E88EE190E0A80197010E94AE072C
:1009B00021503040404050405695479537952795F7
:1009C00080E12030380720F0DD2011F0DD24D6CF83
:1009D000E889F9893083EA89FB89208319A2EE89A5
:1009E000FF89408121E030E0C9010C8C02C0880FF2
:1009F000991F0A94E2F7482B4083EE89FF894081D2
:100A0000C9010D8C02C0880F991F0A94E2F7482B88
:100A10004083EE89FF894081C9010E8C02C0880F96
:100A2000991F0A94E2F7482B4083EE89FF89808161
:100A30000F8C02C0220F331F0A94E2F7209528235F
:100A40002083DF91CF911F910F91FF90EF90DF9066
:100A5000BF90AF900895DC011C96ED91FC911D971D
:100A6000E05CFF4F8191919120813181805C9F4FAB
:100A7000821B930B60E470E00E949B070895DC01E9
:100A80001C96ED91FC911D97E05CFF4F2081318118
:100A9000E054F040DF01AE5BBF4F8D919C91119708
:100AA0002817390719F42FEF3FEF07C08D919C915C
:100AB000E80FF91F8081282F30E0C9010895DC017B
:100AC0001C96ED91FC911D97E05CFF4F20813181D8
:100AD000E054F040DF01AE5BBF4F8D919C911197C8
:100AE0002817390719F42FEF3FEF10C08D919C9113
:100AF0001197E80FF91F20818D919C911197019614
:100B00008F73907011969C938E9330E0C901089575
:100B1000DC0191968C919197882339F05496ED9150
:100B2000FC915597808186FFF9CF91961C9208958C
:100B3000CF93DF93EC01EE85FF85E05CFF4F2081D2
:100B40003181E054F0402F5F3F4F2F733070DF0151
:100B5000AE5BBF4F8D919C91119728173907D1F348
:100B6000E05CFF4F80819181E054F040E80FF91F75
:100B70006083EE85FF85E05CFF4F31832083EE8943
:100B8000FF89208181E090E00F8C02C0880F991FBF
:100B90000A94E2F7282B208381E089A3EC89FD8960
:100BA00080818064808381E090E0DF91CF9108951F
:100BB0001092BC011092BB0188EE93E0A0E0B0E07F
:100BC0008093BD019093BE01A093BF01B093C0017B
:100BD00089E091E09093BA018093B90181E391E0BB
:100BE0009093C6018093C50185E791E09093C80179
:100BF0008093C70185EC90E09093CA018093C9016E
:100C000084EC90E09093CC018093CB0180EC90E059
:100C10009093CE018093CD0181EC90E09093D00130
:100C20008093CF0182EC90E09093D2018093D10128
:100C300086EC90E09093D4018093D30184E080937C
:100C4000D50183E08093D60187E08093D70185E0CA
:100C50008093D80181E08093D90108950895CF93BE
:100C6000DF930E94E8020E942E060E94DB00C2E58C
:100C7000D4E00E949E002097E1F30E945204F9CF35
:100C8000CF92DF92EF92FF920F931F93CF93DF9358
:100C90007C016B018A01C0E0D0E00FC0D6016D91EC
:100CA0006D01D701ED91FC910190F081E02DC7011C
:100CB0000995C80FD91F015010400115110571F792
:100CC000CE01DF91CF911F910F91FF90EF90DF90B8
:100CD000CF900895EF92FF920F931F938C01DC0148
:100CE000ED91FC910190F081E02D6DE009957C0182
:100CF000D801ED91FC910190F081E02DC8016AE0EE
:100D000009959C012E0D3F1DC9011F910F91FF9068
:100D1000EF900895CF93DF93EC016115710519F4FD
:100D200020E030E00FC0DB010D900020E9F71197C3
:100D3000A61BB70BE881F9810280F381E02DAD019C
:100D400009959C01C901DF91CF9108954F925F925F
:100D50007F928F929F92AF92BF92CF92DF92EF924B
:100D6000FF920F931F93DF93CF93CDB7DEB7A19779
:100D70000FB6F894DEBF0FBECDBF2C01742ECB0191
:100D8000223008F42AE019A231E2C32ED12CCC0E75
:100D9000DD1E822E9924AA24BB24672D752FA50160
:100DA00094010E94AE0779018A01C801B701A5012B
:100DB00094010E947C07472D461B0894C108D10866
:100DC0004A3014F4405D01C0495CF6014083E114EF
:100DD000F1040105110521F07E2C5F2DC801DDCF46
:100DE000C201B6010E948A06A1960FB6F894DEBF32
:100DF0000FBECDBFCF91DF911F910F91FF90EF906C
:100E0000DF90CF90BF90AF909F908F907F905F903A
:100E10004F900895CF92DF92EF92FF920F931F931E
:100E2000CF93DF93EC016A017B012115310541F479
:100E3000E881F9810190F081E02D642F09951FC0B0
:100E40002A303105D1F477FF17C0E881F98101908C
:100E5000F081E02D6DE209958C0144275527BA01F8
:100E60004C195D096E097F09CE012AE00E94A60691
:100E70009801280F391F04C02AE00E94A6069C0191
:100E8000C901DF91CF911F910F91FF90EF90DF90FB
:100E9000CF900895CF92DF92EF92FF920F931F931E
:100EA0006C017B019A010027F7FC0095102FB80117
:100EB000A7010E940A078C01C6010E946A06080F5A
:100EC000191FC8011F910F91FF90EF90DF90CF90F5
:100ED0000895EF92FF920F931F937C010E948A0660
:100EE0008C01C7010E946A06080F191FC8011F91D3
:100EF0000F91FF90EF900895629FD001739FF001D2
:100F0000829FE00DF11D649FE00DF11D929FF00D99
:100F1000839FF00D749FF00D659FF00D9927729FD0
:100F2000B00DE11DF91F639FB00DE11DF91FBD015B
:100F3000CF011124089597FB092E07260AD077FDCB
:100F400004D02ED006D000201AF4709561957F4F02
:100F50000895F6F7909581959F4F0895A1E21A2E76
:100F6000AA1BBB1BFD010DC0AA1FBB1FEE1FFF1F4D
:100F7000A217B307E407F50720F0A21BB30BE40B9D
:100F8000F50B661F771F881F991F1A9469F76095E4
:100F90007095809590959B01AC01BD01CF0108959E
:100FA000AA1BBB1B51E107C0AA1FBB1FA617B7078F
:100FB00010F0A61BB70B881F991F5A95A9F78095AB
:100FC0009095BC01CD010895EE0FFF1F0590F4919F
:080FD000E02D0994F894FFCF15
:100FD80073746F700000000000980540062B055FD1
:060FE800053F058805002D
:00000001FF
