:100000000C9462000C948A000C948A000C948A0070
:100010000C948A000C948A000C948A000C948A0038
:100020000C948A000C948A000C948A000C948A0028
:100030000C948A000C948A000C948A000C948A0018
:100040000C9488010C948A000C9458030C94AA0315
:100050000C948A000C948A000C948A000C948A00F8
:100060000C948A000C948A000000000024002700F1
:100070002A0000000000250028002B0000000000DE
:1000800023002600290004040404040404040202DA
:100090000202020203030303030301020408102007
:1000A0004080010204081020010204081020000012
:1000B0000007000201000003040600000000000029
:1000C0000000190511241FBECFEFD8E0DEBFCDBF61
:1000D00011E0A0E0B1E0E6E9FCE002C005900D927D
:1000E000A831B107D9F711E0A8E1B1E001C01D9234
:1000F000AD3CB107E1F710E0C4ECD0E004C02297BA
:10010000FE010E944506C23CD107C9F70E94700556
:100110000C9449060C94000086E060E00E94030302
:1001200087E060E00E94030384E060E00E94030334
:1001300085E060E00E94030385E090E09093190160
:1001400080931801089580911801909119010497E6
:1001500041F00E948C0064E670E080E090E00E9434
:10016000D00186E060E00E94030387E061E00E9426
:10017000030384E061E00E94030385E060E00E94E5
:10018000030384E090E0909319018093180108958F
:100190008091180190911901039741F00E948C0001
:1001A00064E670E080E090E00E94D00186E061E0CB
:1001B0000E94030387E060E00E94030384E060E0A4
:1001C0000E94030385E061E00E94030383E090E066
:1001D00090931901809318010895809118019091CE
:1001E0001901029741F00E948C0064E670E080E003
:1001F00090E00E94D00186E060E00E94030387E067
:1002000061E00E94030384E060E00E94030385E054
:1002100061E00E94030382E090E0909319018093D3
:10022000180108958091180190911901019741F0EA
:100230000E948C0064E670E080E090E00E94D001B3
:1002400086E061E00E94030387E060E00E94030310
:1002500084E061E00E94030385E060E00E94030304
:100260008BEA91E060E071E00E94E70581E090E0B8
:10027000909319018093180108958BEA91E00E94F0
:10028000A00486369105D1F0873691053CF481367D
:10029000910559F084369105B1F40DC0873691056A
:1002A00081F08337910579F403C00E94120108950B
:1002B0000E94ED0008950E94C80008950E94A300C6
:1002C00008950E948C00089585E090E090931901B4
:1002D0008093180183E06AE570E00E94640284E084
:1002E00061E00E94C40285E061E00E94C40286E0F1
:1002F00061E00E94C40287E061E00E94C4028BEAD0
:1003000091E040E855E260E070E00E94E503089566
:100310001F920F920FB60F9211242F933F938F933A
:100320009F93AF93BF9380911E0190911F01A09165
:100330002001B0912101309122010196A11DB11D32
:10034000232F2D5F2D3720F02D570196A11DB11DB4
:100350002093220180931E0190931F01A0932001FE
:10036000B093210180911A0190911B01A0911C0171
:10037000B0911D010196A11DB11D80931A019093AA
:100380001B01A0931C01B0931D01BF91AF919F91E0
:100390008F913F912F910F900FBE0F901F90189546
:1003A0009B01AC017FB7F89480911A0190911B01D9
:1003B000A0911C01B0911D0166B5A89B05C06F3FBF
:1003C00019F00196A11DB11D7FBFBA2FA92F982F3B
:1003D0008827860F911DA11DB11D62E0880F991F0E
:1003E000AA1FBB1F6A95D1F7BC012DC0FFB7F894B7
:1003F00080911A0190911B01A0911C01B0911D01E7
:10040000E6B5A89B05C0EF3F19F00196A11DB11DEF
:10041000FFBFBA2FA92F982F88278E0F911DA11DDE
:10042000B11DE2E0880F991FAA1FBB1FEA95D1F703
:10043000861B970B885E9340C8F2215030404040A5
:10044000504068517C4F211531054105510571F629
:100450000895789484B5826084BD84B5816084BD3C
:1004600085B5826085BD85B5816085BDEEE6F0E02D
:10047000808181608083E1E8F0E010828081826089
:100480008083808181608083E0E8F0E0808181600A
:100490008083E1EBF0E0808184608083E0EBF0E03A
:1004A000808181608083EAE7F0E0808184608083DE
:1004B0008081826080838081816080838081806888
:1004C00080831092C10008951F93CF93DF93182F5C
:1004D000EB0161E00E94C402209709F44AC0CF3FBB
:1004E000D10509F449C0E12FF0E0E255FF4F8491B6
:1004F0008330C1F0843028F4813051F08230B1F57E
:100500000CC0863019F1873049F1843079F514C078
:1005100084B5806884BDC7BD33C084B5806284BDA6
:10052000C8BD2EC080918000806880938000D093E9
:100530008900C093880024C08091800080628093ED
:100540008000D0938B00C0938A001AC08091B000C5
:1005500080688093B000C093B30012C08091B00057
:1005600080628093B000C093B4000AC0C038D10547
:100570001CF4812F60E002C0812F61E00E94030320
:10058000DF91CF911F910895CF93DF93482F50E0D3
:10059000CA0186569F4FFC0134914A575F4FFA01BA
:1005A0008491882369F190E0880F991FFC01E85934
:1005B000FF4FA591B491FC01EE58FF4FC591D49126
:1005C000662351F42FB7F8948C91932F909589233B
:1005D0008C93888189230BC0623061F42FB7F89423
:1005E0008C91932F909589238C938881832B88837A
:1005F0002FBF06C09FB7F8948C91832B8C939FBF1D
:10060000DF91CF910895482F50E0CA0182559F4F46
:10061000FC012491CA0186569F4FFC0194914A57D0
:100620005F4FFA013491332309F440C0222351F182
:10063000233071F0243028F42130A1F0223011F55C
:1006400014C02630B1F02730C1F02430D9F404C0F2
:10065000809180008F7703C0809180008F7D809390
:10066000800010C084B58F7702C084B58F7D84BDB3
:1006700009C08091B0008F7703C08091B0008F7D5A
:100680008093B000E32FF0E0EE0FFF1FEE58FF4F16
:10069000A591B4912FB7F894662321F48C9190958D
:1006A000892302C08C91892B8C932FBF08950895C4
:1006B0001F920F920FB60F9211242F933F934F93D7
:1006C0008F939F93EF93FF938091C00082FD1DC095
:1006D0004091C60020916301309164012F5F3F4F2C
:1006E0002F7330708091650190916601281739074A
:1006F00071F0E0916301F0916401ED5DFE4F408384
:10070000309364012093630102C08091C600FF9181
:10071000EF919F918F914F913F912F910F900FBE2D
:100720000F901F901895E091B701F091B801E05C2F
:10073000FF4F8191919120813181805C9F4F821B7D
:10074000930B60E470E00E94FA05892B11F00E947F
:10075000570308951F920F920FB60F9211242F93F3
:100760003F938F939F93EF93FF932091A701309135
:10077000A8018091A9019091AA012817390731F4A5
:100780008091C1008F7D8093C10014C0E091A901C8
:10079000F091AA01E959FE4F20818091A901909121
:1007A000AA0101968F7390709093AA018093A9017A
:1007B0002093C600FF91EF919F918F913F912F91D0
:1007C0000F900FBE0F901F901895AF92BF92DF92BF
:1007D000EF92FF920F931F93CF93DF93EC017A0177
:1007E0008B01DD24403081EE580780E0680780E00F
:1007F000780711F0DD24D39491E0A92EB12CEC8977
:10080000FD89DD2069F0C50108A002C0880F991F8D
:100810000A94E2F7808360E079E08DE390E005C020
:10082000108260E874E88EE190E0A80197010E94D0
:100830000D06215030404040504056954795379521
:10084000279580E12030380720F0DD2011F0DD24ED
:10085000D6CFE889F9893083EA89FB89208319A2F8
:10086000EE89FF89408121E030E0C9010C8C02C093
:10087000880F991F0A94E2F7482B4083EE89FF897D
:100880004081C9010D8C02C0880F991F0A94E2F7BC
:10089000482B4083EE89FF894081C9010E8C02C03C
:1008A000880F991F0A94E2F7482B4083EE89FF894D
:1008B00080810F8C02C0220F331F0A94E2F720952B
:1008C00028232083DF91CF911F910F91FF90EF900C
:1008D000DF90BF90AF900895DC011C96ED91FC91E4
:1008E0001D97E05CFF4F8191919120813181805C67
:1008F0009F4F821B930B60E470E00E94FA050895FD
:10090000DC011C96ED91FC911D97E05CFF4F20816E
:100910003181E054F040DF01AE5BBF4F8D919C917F
:1009200011972817390719F42FEF3FEF07C08D9162
:100930009C91E80FF91F8081282F30E0C9010895AC
:10094000DC011C96ED91FC911D97E05CFF4F20812E
:100950003181E054F040DF01AE5BBF4F8D919C913F
:1009600011972817390719F42FEF3FEF10C08D9119
:100970009C911197E80FF91F20818D919C911197FF
:1009800001968F73907011969C938E9330E0C901FD
:100990000895DC0191968C919197882339F05496B3
:1009A000ED91FC915597808186FFF9CF91961C922D
:1009B0000895CF93DF93EC01EE85FF85E05CFF4F58
:1009C00020813181E054F0402F5F3F4F2F73307012
:1009D000DF01AE5BBF4F8D919C91119728173907AE
:1009E000D1F3E05CFF4F80819181E054F040E80F4B
:1009F000F91F6083EE85FF85E05CFF4F3183208324
:100A0000EE89FF89208181E090E00F8C02C0880F81
:100A1000991F0A94E2F7282B208381E089A3EC89AF
:100A2000FD8980818064808381E090E0DF91CF91B7
:100A300008951092AE011092AD0188EE93E0A0E00F
:100A4000B0E08093AF019093B001A093B101B09357
:100A5000B2018CE091E09093AC018093AB0183E212
:100A600091E09093B8018093B70187E691E090936D
:100A7000BA018093B90185EC90E09093BC0180931A
:100A8000BB0184EC90E09093BE018093BD0180ECAB
:100A900090E09093C0018093BF0181EC90E090932F
:100AA000C2018093C10182EC90E09093C4018093D5
:100AB000C30186EC90E09093C6018093C50184E069
:100AC0008093C70183E08093C80187E08093C901C8
:100AD00085E08093CA0181E08093CB010895089559
:100AE000CF93DF930E9429020E946F050E94640148
:100AF000C3E9D3E00E943D012097E1F30E949303F4
:100B0000F9CFCF92DF92EF92FF920F931F93CF9383
:100B1000DF937C016B018A01C0E0D0E00FC0D601F9
:100B20006D916D01D701ED91FC910190F081E02D67
:100B3000C7010995C80FD91F0150104001151105B3
:100B400071F7CE01DF91CF911F910F91FF90EF9040
:100B5000DF90CF900895EF92FF920F931F938C0137
:100B6000DC01ED91FC910190F081E02D6DE00995A3
:100B70007C01D801ED91FC910190F081E02DC8013C
:100B80006AE009959C012E0D3F1DC9011F910F912F
:100B9000FF90EF900895CF93DF93EC0161157105FD
:100BA00019F420E030E00FC0DB010D900020E9F7E0
:100BB0001197A61BB70BE881F9810280F381E02D24
:100BC000AD0109959C01C901DF91CF910895EF9284
:100BD000FF920F931F937C010E94CB058C01C701EC
:100BE0000E94AB05080F191FC8011F910F91FF90BC
:100BF000EF90089597FB092E07260AD077FD04D0C1
:100C00002ED006D000201AF4709561957F4F08957C
:100C1000F6F7909581959F4F0895A1E21A2EAA1B91
:100C2000BB1BFD010DC0AA1FBB1FEE1FFF1FA2179C
:100C3000B307E407F50720F0A21BB30BE40BF50B99
:100C4000661F771F881F991F1A9469F76095709522
:100C5000809590959B01AC01BD01CF010895AA1B21
:100C6000BB1B51E107C0AA1FBB1FA617B70710F097
:100C7000A61BB70B881F991F5A95A9F780959095C9
:100C8000BC01CD010895EE0FFF1F0590F491E02DFA
:060C90000994F894FFCF67
:100C9600666F72776172640000000000D9048105F6
:080CA6006C04A0048004C904E1
:00000001FF
