:100000000C9463000C948B000C948B000C948B006C
:100010000C948B000C948B000C948B000C948B0034
:100020000C948B000C948B000C948B000C948B0024
:100030000C948B000C949E010C948B000C948B0000
:100040000C940F020C948B000C9401040C94530438
:100050000C948B000C948B000C948B000C948B00F4
:100060000C948B000C948B000000000024002700EF
:100070002A0000000000250028002B0000000000DE
:1000800023002600290004040404040404040202DA
:100090000202020203030303030301020408102007
:1000A0004080010204081020010204081020000012
:1000B0000007000201000003040600000000000029
:1000C00000008D00C20511241FBECFEFD8E0DEBFB7
:1000D000CDBF11E0A0E0B1E0E2EEFFE002C005908C
:1000E0000D92AA31B107D9F711E0AAE1B1E001C040
:1000F0001D92A93DB107E1F710E0C6ECD0E004C0C5
:100100002297FE010E94EB07C23CD107C9F70E946B
:1001100019060C94EF070C9400008DE191E00E9409
:10012000C501089586E060E00E94AC0387E060E0CE
:100130000E94AC0384E060E00E94AC0385E060E0D4
:100140000E94AC0385E090E090931B0180931A011C
:10015000089560E080911C01882309F461E06093B8
:100160001C018DE00E94AC03089580911A019091CA
:100170001B01039741F00E94920064E670E080E06A
:1001800090E00E94570286E061E00E94AC0387E0A5
:1001900060E00E94AC0384E060E00E94AC0385E074
:1001A00061E00E94AC0383E090E090931B01809398
:1001B0001A01089580911A0190911B01029741F054
:1001C0000E94920064E670E080E090E00E94570296
:1001D00086E060E00E94AC0387E061E00E94AC032F
:1001E00084E060E00E94AC0385E061E00E94AC0323
:1001F00082E090E090931B0180931A010895809112
:100200001A0190911B01019741F00E94920064E64F
:1002100070E080E090E00E94570286E061E00E947A
:10022000AC0387E060E00E94AC0384E061E00E94E0
:10023000AC0385E060E00E94AC0387EB91E060E0F6
:1002400071E00E94530781E090E090931B0180933E
:100250001A0108950F931F9383E10E94EB028C0112
:1002600087EB91E0B8014AE050E00E943407055F57
:1002700011408CF00E94DA0068EC70E080E090E0C1
:100280000E9457020E94B5006CE271E080E090E0AD
:100290000E94570202C00E94FF001F910F91089513
:1002A0008EE00E94EB02BC018DE191E00E94CD0145
:1002B00085E090E090931B0180931A0183E062E354
:1002C00070E00E940D0384E061E00E946D0385E010
:1002D00061E00E946D0386E061E00E946D0387E0AB
:1002E00061E00E946D0387EB91E040E855E260E039
:1002F00070E00E948E048DE061E00E946D03E1E8F1
:10030000F0E080E180831092800083E080932301FD
:100310008EE399E4909322018093210190938700CA
:100320008093860083E1808389EA90E090932501A1
:100330008093240181E080936F0008951F920F92B3
:100340000FB60F9211242F933F934F935F936F93A8
:100350007F938F939F93AF93BF93EF93FF93E0911E
:100360002401F09125010995FF91EF91BF91AF9183
:100370009F918F917F916F915F914F913F912F91BD
:100380000F900FBE0F901F901895FC0111821082E4
:1003900085E090E0938382830895EF92FF920F931C
:1003A0001F93CF93DF939C01FC0180819181029682
:1003B000FC01EE0FFF1FE20FF31F71836083F90151
:1003C000C281D3810197BE010E94850791838083FA
:1003D000EE24FF24870120E030E00CC0828193816D
:1003E000AA2797FDA095BA2FE80EF91E0A1F1B1F1A
:1003F0002F5F3F4F32962C173D0784F39E01442711
:1004000037FD4095542FC801B7010E94BA07C901B2
:10041000DF91CF911F910F91FF90EF9008951F9260
:100420000F920FB60F9211242F933F938F939F93A8
:10043000AF93BF9380912A0190912B01A0912C0141
:10044000B0912D0130912E010196A11DB11D232FD8
:100450002D5F2D3720F02D570196A11DB11D209342
:100460002E0180932A0190932B01A0932C01B0932D
:100470002D018091260190912701A0912801B09132
:1004800029010196A11DB11D80932601909327019A
:10049000A0932801B0932901BF91AF919F918F91B3
:1004A0003F912F910F900FBE0F901F9018959B01B9
:1004B000AC017FB7F8948091260190912701A0911B
:1004C0002801B091290166B5A89B05C06F3F19F0BE
:1004D0000196A11DB11D7FBFBA2FA92F982F882784
:1004E000860F911DA11DB11D62E0880F991FAA1FE3
:1004F000BB1F6A95D1F7BC012DC0FFB7F89480915E
:10050000260190912701A0912801B0912901E6B51B
:10051000A89B05C0EF3F19F00196A11DB11DFFBFBB
:10052000BA2FA92F982F88278E0F911DA11DB11DBD
:10053000E2E0880F991FAA1FBB1FEA95D1F7861B1F
:10054000970B885E9340C8F22150304040405040A5
:1005500068517C4F211531054105510571F608950B
:10056000789484B5826084BD84B5816084BD85B58E
:10057000826085BD85B5816085BDEEE6F0E0808155
:1005800081608083E1E8F0E0108280818260808376
:10059000808181608083E0E8F0E0808181608083F9
:1005A000E1EBF0E0808184608083E0EBF0E080812B
:1005B00081608083EAE7F0E08081846080838081CD
:1005C0008260808380818160808380818068808375
:1005D0001092C1000895982F8E3008F09E509770A9
:1005E000809108018295880F880F807C892B8093E9
:1005F0007C0080917A00806480937A0080917A00F8
:1006000086FDFCCF2091780040917900942F80E006
:1006100030E0282B392BC90108951F93CF93DF9326
:10062000182FEB0161E00E946D03209709F44AC086
:10063000CF3FD10509F449C0E12FF0E0E255FF4F6B
:1006400084918330C1F0843028F4813051F08230BD
:10065000B1F50CC0863019F1873049F1843079F555
:1006600014C084B5806884BDC7BD33C084B58062C2
:1006700084BDC8BD2EC080918000806880938000BA
:10068000D0938900C093880024C08091800080624C
:1006900080938000D0938B00C0938A001AC0809111
:1006A000B00080688093B000C093B30012C0809106
:1006B000B00080628093B000C093B4000AC0C0381C
:1006C000D1051CF4812F60E002C0812F61E00E94FF
:1006D000AC03DF91CF911F910895CF93DF93482F03
:1006E00050E0CA0186569F4FFC0134914A575F4F34
:1006F000FA018491882369F190E0880F991FFC0129
:10070000E859FF4FA591B491FC01EE58FF4FC591F8
:10071000D491662351F42FB7F8948C91932F909530
:1007200089238C93888189230BC0623061F42FB7B1
:10073000F8948C91932F909589238C938881832BA7
:1007400088832FBF06C09FB7F8948C91832B8C931E
:100750009FBFDF91CF910895482F50E0CA01825585
:100760009F4FFC012491CA0186569F4FFC01949132
:100770004A575F4FFA013491332309F440C02223D2
:1007800051F1233071F0243028F42130A1F02230CF
:1007900011F514C02630B1F02730C1F02430D9F45F
:1007A00004C0809180008F7703C0809180008F7D8E
:1007B0008093800010C084B58F7702C084B58F7D90
:1007C00084BD09C08091B0008F7703C08091B000D4
:1007D0008F7D8093B000E32FF0E0EE0FFF1FEE5807
:1007E000FF4FA591B4912FB7F894662321F48C9113
:1007F0009095892302C08C91892B8C932FBF0895EB
:1008000008951F920F920FB60F9211242F933F93CA
:100810004F938F939F93EF93FF938091C00082FD3E
:100820001DC04091C60020916F01309170012F5F73
:100830003F4F2F7330708091710190917201281792
:10084000390771F0E0916F01F0917001E15DFE4FA9
:1008500040833093700120936F0102C08091C600E5
:10086000FF91EF919F918F914F913F912F910F9019
:100870000FBE0F901F901895E091C301F091C40135
:10088000E05CFF4F8191919120813181805C9F4F8D
:10089000821B930B60E470E00E948507892B11F0A6
:1008A0000E94000408951F920F920FB60F92112418
:1008B0002F933F938F939F93EF93FF932091B301D7
:1008C0003091B4018091B5019091B6012817390794
:1008D00031F48091C1008F7D8093C10014C0E091FC
:1008E000B501F091B601ED58FE4F20818091B50120
:1008F0009091B60101968F7390709093B60180939A
:10090000B5012093C600FF91EF919F918F913F9188
:100910002F910F900FBE0F901F901895AF92BF921E
:10092000DF92EF92FF920F931F93CF93DF93EC012F
:100930007A018B01DD24403081EE580780E06807A2
:1009400080E0780711F0DD24D39491E0A92EB12C3A
:10095000EC89FD89DD2069F0C50108A002C0880F7F
:10096000991F0A94E2F7808360E079E08DE390E0DC
:1009700005C0108260E874E88EE190E0A80197015C
:100980000E9498072150304040405040569547956E
:100990003795279580E12030380720F0DD2011F0D1
:1009A000DD24D6CFE889F9893083EA89FB89208361
:1009B00019A2EE89FF89408121E030E0C9010C8C49
:1009C00002C0880F991F0A94E2F7482B4083EE89F2
:1009D000FF894081C9010D8C02C0880F991F0A94BC
:1009E000E2F7482B4083EE89FF894081C9010E8CD4
:1009F00002C0880F991F0A94E2F7482B4083EE89C2
:100A0000FF8980810F8C02C0220F331F0A94E2F706
:100A1000209528232083DF91CF911F910F91FF9084
:100A2000EF90DF90BF90AF900895DC011C96ED91A0
:100A3000FC911D97E05CFF4F819191912081318164
:100A4000805C9F4F821B930B60E470E00E948507DF
:100A50000895DC011C96ED91FC911D97E05CFF4F21
:100A600020813181E054F040DF01AE5BBF4F8D91BA
:100A70009C9111972817390719F42FEF3FEF07C002
:100A80008D919C91E80FF91F8081282F30E0C901DA
:100A90000895DC011C96ED91FC911D97E05CFF4FE1
:100AA00020813181E054F040DF01AE5BBF4F8D917A
:100AB0009C9111972817390719F42FEF3FEF10C0B9
:100AC0008D919C911197E80FF91F20818D919C9138
:100AD000119701968F73907011969C938E9330E0CE
:100AE000C9010895DC0191968C919197882339F082
:100AF0005496ED91FC915597808186FFF9CF9196A0
:100B00001C920895CF93DF93EC01EE85FF85E05CA6
:100B1000FF4F20813181E054F0402F5F3F4F2F7312
:100B20003070DF01AE5BBF4F8D919C9111972817FC
:100B30003907D1F3E05CFF4F80819181E054F040B0
:100B4000E80FF91F6083EE85FF85E05CFF4F31837E
:100B50002083EE89FF89208181E090E00F8C02C024
:100B6000880F991F0A94E2F7282B208381E089A33C
:100B7000EC89FD8980818064808381E090E0DF9151
:100B8000CF9108951092BA011092B90188EE93E0C6
:100B9000A0E0B0E08093BB019093BC01A093BD01A5
:100BA000B093BE018DE091E09093B8018093B701BE
:100BB0008FE291E09093C4018093C30183E791E0B9
:100BC0009093C6018093C50185EC90E09093C80195
:100BD0008093C70184EC90E09093CA018093C9018F
:100BE00080EC90E09093CC018093CB0181EC90E07D
:100BF0009093CE018093CD0182EC90E09093D00150
:100C00008093CF0186EC90E09093D2018093D10144
:100C100084E08093D30183E08093D40187E08093C4
:100C2000D50185E08093D60181E08093D7010895B6
:100C30000895CF93DF930E94B0020E9418060E948D
:100C40005001CCE3D4E00E942A012097E1F30E94F6
:100C50003C04F9CFCF92DF92EF92FF920F931F9354
:100C6000CF93DF937C016B018A01C0E0D0E00FC01D
:100C7000D6016D916D01D701ED91FC910190F0814C
:100C8000E02DC7010995C80FD91F0150104001156B
:100C9000110571F7CE01DF91CF911F910F91FF9058
:100CA000EF90DF90CF900895EF92FF920F931F93F4
:100CB0008C01DC01ED91FC910190F081E02D6DE063
:100CC00009957C01D801ED91FC910190F081E02D16
:100CD000C8016AE009959C012E0D3F1DC9011F91B5
:100CE0000F91FF90EF900895CF93DF93EC01611582
:100CF000710519F420E030E00FC0DB010D900020F9
:100D0000E9F71197A61BB70BE881F9810280F381FF
:100D1000E02DAD0109959C01C901DF91CF910895A6
:100D20004F925F927F928F929F92AF92BF92CF929B
:100D3000DF92EF92FF920F931F93DF93CF93CDB784
:100D4000DEB7A1970FB6F894DEBF0FBECDBF2C0162
:100D5000742ECB01223008F42AE019A231E2C32E0E
:100D6000D12CCC0EDD1E822E9924AA24BB24672D03
:100D7000752FA50194010E94980779018A01C80185
:100D8000B701A50194010E946607472D461B0894F0
:100D9000C108D1084A3014F4405D01C0495CF60135
:100DA0004083E114F1040105110521F07E2C5F2D33
:100DB000C801DDCFC201B6010E947406A1960FB62C
:100DC000F894DEBF0FBECDBFCF91DF911F910F9181
:100DD000FF90EF90DF90CF90BF90AF909F908F905B
:100DE0007F905F904F900895CF92DF92EF92FF92A5
:100DF0000F931F93CF93DF93EC016A017B012115C1
:100E0000310541F4E881F9810190F081E02D642FF2
:100E100009951FC02A303105D1F477FF17C0E8814A
:100E2000F9810190F081E02D6DE209958C01442754
:100E30005527BA014C195D096E097F09CE012AE0D8
:100E40000E9490069801280F391F04C02AE00E94D2
:100E500090069C01C901DF91CF911F910F91FF90E6
:100E6000EF90DF90CF900895CF92DF92EF92FF92B4
:100E70000F931F936C017B019A010027F7FC0095EB
:100E8000102FB801A7010E94F4068C01C6010E9430
:100E90005406080F191FC8011F910F91FF90EF9082
:100EA000DF90CF900895EF92FF920F931F937C01F4
:100EB0000E9474068C01C7010E945406080F191F76
:100EC000C8011F910F91FF90EF900895629FD0018C
:100ED000739FF001829FE00DF11D649FE00DF11DF5
:100EE000929FF00D839FF00D749FF00D659FF00DA4
:100EF0009927729FB00DE11DF91F639FB00DE11D91
:100F0000F91FBD01CF011124089597FB092E072673
:100F10000AD077FD04D049D006D000201AF470958D
:100F200061957F4F0895F6F7909581959F4F0895AD
:100F3000A1E21A2EAA1BBB1BFD010DC0AA1FBB1FDD
:100F4000EE1FFF1FA217B307E407F50720F0A21B4F
:100F5000B30BE40BF50B661F771F881F991F1A94BC
:100F600069F760957095809590959B01AC01BD01E6
:100F7000CF01089597FB092E05260ED057FD04D00A
:100F8000D7DF0AD0001C38F4509540953095219554
:100F90003F4F4F4F5F4F0895F6F7909580957095AE
:100FA00061957F4F8F4F9F4F0895AA1BBB1B51E147
:100FB00007C0AA1FBB1FA617B70710F0A61BB70BC9
:100FC000881F991F5A95A9F780959095BC01CD016E
:100FD0000895EE0FFF1F0590F491E02D0994F89409
:020FE000FFCF41
:100FE200666F727761726400010000000082052A58
:0A0FF20006150549052905720500E2
:00000001FF
