:100000000C9462000C948A000C948A000C948A0070
:100010000C948A000C948A000C948A000C948A0038
:100020000C948A000C948A000C948A000C948A0028
:100030000C948A000C948A000C948A000C948A0018
:100040000C94F8010C948A000C94EA030C943C0480
:100050000C948A000C948A000C948A000C948A00F8
:100060000C948A000C948A000000000024002700F1
:100070002A0000000000250028002B0000000000DE
:1000800023002600290004040404040404040202DA
:100090000202020203030303030301020408102007
:1000A0004080010204081020010204081020000012
:1000B0000007000201000003040600000000000029
:1000C0000000AB0511241FBECFEFD8E0DEBFCDBFCF
:1000D00011E0A0E0B1E0E0EFFDE002C005900D927C
:1000E000A633B107D9F711E0A6E3B1E001C01D9234
:1000F000A73FB107E1F710E0C4ECD0E004C02297BD
:10010000FE010E94F206C23CD107C9F70E94020616
:100110000C94F6060C9400002091420130914301AA
:10012000F901EE0FFF1FE85CFE4F91838083C90148
:10013000019665E070E00E948C06909343018093E5
:10014000420160913A0170913B01882777FD8095CB
:10015000982F2091380130913901442737FD40957F
:10016000542F620F731F841F951F20913C01309103
:100170003D01442737FD4095542F620F731F841FA4
:10018000951F20913E0130913F01442737FD409556
:10019000542F620F731F841F951F209140013091CF
:1001A0004101442737FD4095542F620F731F841F70
:1001B000951F25E030E040E050E00E94C106C901F3
:1001C000089586E060E00E94950387E060E00E9469
:1001D000950384E060E00E94950385E060E00E9462
:1001E000950385ED91E060E071E00E94790685E07D
:1001F00090E0909337018093360108958091360105
:1002000090913701049741F00E94E10064E670E0AC
:1002100080E090E00E94400286E060E00E9495034A
:1002200087E061E00E94950384E061E00E9495030D
:1002300085E060E00E94950385ED91E065E071E066
:100240000E94790684E090E0909337018093360114
:1002500008958091360190913701039741F00E94F3
:10026000E10064E670E080E090E00E94400286E0F9
:1002700060E00E94950387E061E00E94950384E0BE
:1002800060E00E94950385E060E00E94950385EDA3
:1002900091E06AE071E00E94790683E090E090933B
:1002A000370180933601089580913601909137018E
:1002B000029741F00E94E10064E670E080E090E087
:1002C0000E94400286E060E00E94950387E061E0C2
:1002D0000E94950384E060E00E94950385E061E060
:1002E0000E94950385ED91E060E171E00E9479063E
:1002F00082E090E0909337018093360108958091D9
:10030000360190913701019741F00E94E10064E6C7
:1003100070E080E090E00E94400286E061E00E9490
:10032000950387E060E00E94950384E061E00E940D
:10033000950385E060E00E94950385ED91E065E11D
:1003400071E00E94790681E090E0909337018093FC
:10035000360108958EE00E94D4020E948C0085ED43
:1003600091E00E94320586369105D1F087369105DD
:100370003CF48136910559F084369105B1F40DC0F5
:100380008736910581F08337910579F403C00E9487
:100390007F0108950E94540108950E942901089543
:1003A0000E94FE0008950E94E1000895CF93DF931C
:1003B00085E090E0909337018093360183E06CE311
:1003C00070E00E94F602CDE1D1E003C061E00E943E
:1003D0005603899199910097C9F785ED91E040E81E
:1003E00055E260E070E00E947704DF91CF910895BC
:1003F0001F920F920FB60F9211242F933F938F935A
:100400009F93AF93BF938091480190914901A09130
:100410004A01B0914B0130914C010196A11DB11DD3
:10042000232F2D5F2D3720F02D570196A11DB11DD3
:1004300020934C018093480190934901A0934A0175
:10044000B0934B018091440190914501A0914601E8
:10045000B09147010196A11DB11D80934401909375
:100460004501A0934601B0934701BF91AF919F9181
:100470008F913F912F910F900FBE0F901F90189565
:100480009B01AC017FB7F8948091440190914501A4
:10049000A0914601B091470166B5A89B05C06F3F8A
:1004A00019F00196A11DB11D7FBFBA2FA92F982F5A
:1004B0008827860F911DA11DB11D62E0880F991F2D
:1004C000AA1FBB1F6A95D1F7BC012DC0FFB7F894D6
:1004D0008091440190914501A0914601B09147015E
:1004E000E6B5A89B05C0EF3F19F00196A11DB11D0F
:1004F000FFBFBA2FA92F982F88278E0F911DA11DFE
:10050000B11DE2E0880F991FAA1FBB1FEA95D1F722
:10051000861B970B885E9340C8F2215030404040C4
:10052000504068517C4F211531054105510571F648
:100530000895789484B5826084BD84B5816084BD5B
:1005400085B5826085BD85B5816085BDEEE6F0E04C
:10055000808181608083E1E8F0E0108280818260A8
:100560008083808181608083E0E8F0E08081816029
:100570008083E1EBF0E0808184608083E0EBF0E059
:10058000808181608083EAE7F0E0808184608083FD
:1005900080818260808380818160808380818068A7
:1005A00080831092C1000895982F8E3008F09E50DD
:1005B0009770809125018295880F880F807C892B08
:1005C00080937C0080917A00806480937A0080918F
:1005D0007A0086FDFCCF2091780040917900942F1D
:1005E00080E030E0282B392BC90108951F93CF9369
:1005F000DF93182FEB0161E00E945603209709F466
:100600004AC0CF3FD10509F449C0E12FF0E0E255DF
:10061000FF4F84918330C1F0843028F4813051F051
:100620008230B1F50CC0863019F1873049F1843041
:1006300079F514C084B5806884BDC7BD33C084B566
:10064000806284BDC8BD2EC0809180008068809388
:100650008000D0938900C093880024C080918000DE
:10066000806280938000D0938B00C0938A001AC070
:100670008091B00080688093B000C093B30012C036
:100680008091B00080628093B000C093B4000AC033
:10069000C038D1051CF4812F60E002C0812F61E0D9
:1006A0000E949503DF91CF911F910895CF93DF931F
:1006B000482F50E0CA0186569F4FFC0134914A579B
:1006C0005F4FFA018491882369F190E0880F991FA8
:1006D000FC01E859FF4FA591B491FC01EE58FF4F82
:1006E000C591D491662351F42FB7F8948C91932F30
:1006F000909589238C93888189230BC0623061F4A3
:100700002FB7F8948C91932F909589238C9388819F
:10071000832B88832FBF06C09FB7F8948C91832BBF
:100720008C939FBFDF91CF910895482F50E0CA016D
:1007300082559F4FFC012491CA0186569F4FFC01B0
:1007400094914A575F4FFA013491332309F440C022
:10075000222351F1233071F0243028F42130A1F00C
:10076000223011F514C02630B1F02730C1F024300A
:10077000D9F404C0809180008F7703C080918000FD
:100780008F7D8093800010C084B58F7702C084B5C0
:100790008F7D84BD09C08091B0008F7703C08091A8
:1007A000B0008F7D8093B000E32FF0E0EE0FFF1FCD
:1007B000EE58FF4FA591B4912FB7F894662321F41A
:1007C0008C919095892302C08C91892B8C932FBF9B
:1007D000089508951F920F920FB60F9211242F9330
:1007E0003F934F938F939F93EF93FF938091C0001C
:1007F00082FD1DC04091C60020918D0130918E0177
:100800002F5F3F4F2F73307080918F019091900137
:100810002817390771F0E0918D01F0918E01E35BAB
:10082000FE4F408330938E0120938D0102C0809152
:10083000C600FF91EF919F918F914F913F912F9122
:100840000F900FBE0F901F901895E091E101F0916D
:10085000E201E05CFF4F8191919120813181805CC8
:100860009F4F821B930B60E470E00E948C06892BE3
:1008700011F00E94E90308951F920F920FB60F9294
:1008800011242F933F938F939F93EF93FF93209186
:10089000D1013091D2018091D3019091D4012817D8
:1008A000390731F48091C1008F7D8093C10014C05D
:1008B000E091D301F091D401EF56FE4F2081809159
:1008C000D3019091D40101968F7390709093D401CD
:1008D0008093D3012093C600FF91EF919F918F9158
:1008E0003F912F910F900FBE0F901F901895AF92D0
:1008F000BF92DF92EF92FF920F931F93CF93DF93FC
:10090000EC017A018B01DD24403081EE580780E054
:10091000680780E0780711F0DD24D39491E0A92ED8
:10092000B12CEC89FD89DD2069F0C50108A002C069
:10093000880F991F0A94E2F7808360E079E08DE3E5
:1009400090E005C0108260E874E88EE190E0A801B4
:1009500097010E949F0621503040404050405695DC
:1009600047953795279580E12030380720F0DD2026
:1009700011F0DD24D6CFE889F9893083EA89FB8933
:10098000208319A2EE89FF89408121E030E0C9016E
:100990000C8C02C0880F991F0A94E2F7482B408301
:1009A000EE89FF894081C9010D8C02C0880F991F13
:1009B0000A94E2F7482B4083EE89FF894081C90100
:1009C0000E8C02C0880F991F0A94E2F7482B4083CF
:1009D000EE89FF8980810F8C02C0220F331F0A9499
:1009E000E2F7209528232083DF91CF911F910F916B
:1009F000FF90EF90DF90BF90AF900895DC011C96C0
:100A0000ED91FC911D97E05CFF4F819191912081C8
:100A10003181805C9F4F821B930B60E470E00E94E9
:100A20008C060895DC011C96ED91FC911D97E05C0D
:100A3000FF4F20813181E054F040DF01AE5BBF4FBA
:100A40008D919C9111972817390719F42FEF3FEFDB
:100A500007C08D919C91E80FF91F8081282F30E00D
:100A6000C9010895DC011C96ED91FC911D97E05C95
:100A7000FF4F20813181E054F040DF01AE5BBF4F7A
:100A80008D919C9111972817390719F42FEF3FEF9B
:100A900010C08D919C911197E80FF91F20818D91C5
:100AA0009C91119701968F73907011969C938E93E1
:100AB00030E0C9010895DC0191968C9191978823CB
:100AC00039F05496ED91FC915597808186FFF9CFCE
:100AD00091961C920895CF93DF93EC01EE85FF85EC
:100AE000E05CFF4F20813181E054F0402F5F3F4FA9
:100AF0002F733070DF01AE5BBF4F8D919C911197CA
:100B000028173907D1F3E05CFF4F80819181E054D1
:100B1000F040E80FF91F6083EE85FF85E05CFF4F32
:100B200031832083EE89FF89208181E090E00F8C62
:100B300002C0880F991F0A94E2F7282B208381E0D6
:100B400089A3EC89FD8980818064808381E090E0C5
:100B5000DF91CF9108951092D8011092D70188EEBD
:100B600093E0A0E0B0E08093D9019093DA01A093E4
:100B7000DB01B093DC018AE291E09093D60180938F
:100B8000D5018DE491E09093E2018093E10181E948
:100B900091E09093E4018093E30185EC90E09093E1
:100BA000E6018093E50184EC90E09093E801809366
:100BB000E70180EC90E09093EA018093E90181ECF9
:100BC00090E09093EC018093EB0182EC90E09093A5
:100BD000EE018093ED0186EC90E09093F00180931C
:100BE000EF0184E08093F10183E08093F20187E0DC
:100BF0008093F30185E08093F40181E08093F50117
:100C000008950895CF93DF930E9499020E940106F0
:100C10000E94D601C5E2D4E00E94AA012097E1F328
:100C20000E942504F9CFCF92DF92EF92FF920F93AB
:100C30001F93CF93DF937C016B018A01C0E0D0E06A
:100C40000FC0D6016D916D01D701ED91FC9101901E
:100C5000F081E02DC7010995C80FD91F0150104040
:100C60000115110571F7CE01DF91CF911F910F9101
:100C7000FF90EF90DF90CF900895EF92FF920F9347
:100C80001F938C01DC01ED91FC910190F081E02D2E
:100C90006DE009957C01D801ED91FC910190F08106
:100CA000E02DC8016AE009959C012E0D3F1DC90188
:100CB0001F910F91FF90EF900895CF93DF93EC0178
:100CC0006115710519F420E030E00FC0DB010D90D3
:100CD0000020E9F71197A61BB70BE881F981028084
:100CE000F381E02DAD0109959C01C901DF91CF9100
:100CF0000895EF92FF920F931F937C010E945D066F
:100D00008C01C7010E943D06080F191FC8011F91E1
:100D10000F91FF90EF90089597FB092E07260AD0B8
:100D200077FD04D049D006D000201AF47095619563
:100D30007F4F0895F6F7909581959F4F0895A1E212
:100D40001A2EAA1BBB1BFD010DC0AA1FBB1FEE1F45
:100D5000FF1FA217B307E407F50720F0A21BB30B90
:100D6000E40BF50B661F771F881F991F1A9469F70C
:100D700060957095809590959B01AC01BD01CF0168
:100D8000089597FB092E05260ED057FD04D0D7DF16
:100D90000AD0001C38F450954095309521953F4F6E
:100DA0004F4F5F4F0895F6F7909580957095619538
:100DB0007F4F8F4F9F4F0895AA1BBB1B51E107C068
:100DC000AA1FBB1FA617B70710F0A61BB70B881FDB
:100DD000991F5A95A9F780959095BC01CD0108956A
:100DE000EE0FFF1F0590F491E02D0994F894FFCFCA
:100DF00073746F70006C6566740072696768740064
:100E00006261636B00666F72776172640004000553
:100E1000000600070001000000006B051306FE0439
:060E2000320512055B051E
:00000001FF
