:100000000C9462000C948A000C948A000C948A0070
:100010000C948A000C948A000C948A000C948A0038
:100020000C948A000C948A000C948A000C948A0028
:100030000C948A000C948A000C948A000C948A0018
:100040000C94BB010C948A000C945B030C94AD03DC
:100050000C948A000C948A000C948A000C948A00F8
:100060000C948A000C948A000000000024002700F1
:100070002A0000000000250028002B0000000000DE
:1000800023002600290004040404040404040202DA
:100090000202020203030303030301020408102007
:1000A0004080010204081020010204081020000012
:1000B0000007000201000003040600000000000029
:1000C00000001C0511241FBECFEFD8E0DEBFCDBF5E
:1000D00011E0A0E0B1E0E8E0F1E102C005900D928E
:1000E000A437B107D9F712E0A4E7B1E001C01D922F
:1000F000AD32B107E1F710E0C4ECD0E004C02297C4
:10010000FE010E947E08C23CD107C9F70E94730518
:100110000C9482080C9400008DE061E00E940603BC
:100120008BE092E060E071E00E94C40608958DE0EB
:1001300060E00E9406038BE092E06AE071E00E94BA
:10014000C4060895CF93DF93C0917801D0917901CF
:100150008EE00E94A502BC012091740130917501CE
:100160004091760150917701CA01820F931F861743
:1001700097071CF4C1E0D0E007C0241B350B6217C1
:10018000730714F4C2E0D0E0809178019091790176
:100190008130910541F0C130D10519F40E949700DA
:1001A00007C0029729F0C230D10511F40E948C00DB
:1001B000D0937901C093780164E670E080E090E02C
:1001C0000E941102DF91CF9108956F927F928F92DA
:1001D0009F92AF92BF92CF92DF92EF92FF920F93D6
:1001E0001F93CF93DF938BE092E066E171E00E9472
:1001F000C406662477244301C0E0D0E012C08EE03C
:100200000E94A502AA2797FDA095BA2F680E791E15
:100210008A1E9B1E219661E070E080E090E00E94C3
:1002200011020E940302685873418040904038F3E5
:100230008BE092E065E271E00E94C4068BE092E000
:100240000E94AE059E01442737FD4095542FC401FE
:10025000B3010E944D0859016A0179018BE092E0D7
:100260006BE271E00E94C1068BE092E0B401A30151
:100270002AE030E00E948E068BE092E064E371E0B9
:100280000E94C1068BE092E0BE014AE050E00E946D
:10029000A2068BE092E06DE371E00E94C1068BE064
:1002A00092E0B5014AE050E00E94A2060027F7FC68
:1002B0000095102FC801B7010E940A0726E636E60E
:1002C00046E65FE30E9496070E94D7069B01709363
:1002D00075016093740142E0603074072CF08FEF79
:1002E00093E0821B930B01C0CB016AE070E00E9497
:1002F000180870937701609376018BE092E068E4D0
:1003000071E00E94C10660917401709175018BE0EB
:1003100092E04AE050E00E94A2068BE092E065E5A0
:1003200071E00E94C10660917601709177018BE0C7
:1003300092E04AE050E00E94A206DF91CF911F9127
:100340000F91FF90EF90DF90CF90BF90AF909F9074
:100350008F907F906F9008958DE061E00E94C702BA
:100360008BE092E040E855E260E070E00E94E80334
:100370000E94E50008951F920F920FB60F9211246C
:100380002F933F938F939F93AF93BF9380917E0161
:1003900090917F01A0918001B09181013091820103
:1003A0000196A11DB11D232F2D5F2D3720F02D5754
:1003B0000196A11DB11D2093820180937E0190932F
:1003C0007F01A0938001B093810180917A01909187
:1003D0007B01A0917C01B0917D010196A11DB11D11
:1003E00080937A0190937B01A0937C01B0937D016F
:1003F000BF91AF919F918F913F912F910F900FBE21
:100400000F901F9018958FB7F89420917E0130912E
:100410007F0140918001509181018FBFB901CA01D4
:1004200008959B01AC017FB7F89480917A01909177
:100430007B01A0917C01B0917D0166B5A89B05C0B0
:100440006F3F19F00196A11DB11D7FBFBA2FA92FD3
:10045000982F8827860F911DA11DB11D62E0880F7E
:10046000991FAA1FBB1F6A95D1F7BC012DC0FFB70A
:10047000F89480917A0190917B01A0917C01B091D8
:100480007D01E6B5A89B05C0EF3F19F00196A11DBF
:10049000B11DFFBFBA2FA92F982F88278E0F911D4E
:1004A000A11DB11DE2E0880F991FAA1FBB1FEA958D
:1004B000D1F7861B970B885E9340C8F221503040DD
:1004C0004040504068517C4F211531054105510590
:1004D00071F60895789484B5826084BD84B5816096
:1004E00084BD85B5826085BD85B5816085BDEEE63C
:1004F000F0E0808181608083E1E8F0E0108280811B
:1005000082608083808181608083E0E8F0E0808188
:1005100081608083E1EBF0E0808184608083E0EBA8
:10052000F0E0808181608083EAE7F0E08081846090
:1005300080838081826080838081816080838081EC
:10054000806880831092C1000895982F8E3008F043
:100550009E509770809163018295880F880F807CF0
:10056000892B80937C0080917A00806480937A004C
:1005700080917A0086FDFCCF20917800409179002F
:10058000942F80E030E0282B392BC9010895CF93B8
:10059000DF93482F50E0CA0186569F4FFC013491EB
:1005A0004A575F4FFA018491882369F190E0880FE0
:1005B000991FFC01E859FF4FA591B491FC01EE5839
:1005C000FF4FC591D491662351F42FB7F8948C91C5
:1005D000932F909589238C93888189230BC0623057
:1005E00061F42FB7F8948C91932F909589238C9375
:1005F0008881832B88832FBF06C09FB7F8948C9186
:10060000832B8C939FBFDF91CF910895482F50E0AB
:10061000CA0182559F4FFC012491CA0186569F4F03
:10062000FC0194914A575F4FFA013491332309F446
:1006300040C0222351F1233071F0243028F42130BE
:10064000A1F0223011F514C02630B1F02730C1F0EE
:100650002430D9F404C0809180008F7703C080914A
:1006600080008F7D8093800010C084B58F7702C09A
:1006700084B58F7D84BD09C08091B0008F7703C0A1
:100680008091B0008F7D8093B000E32FF0E0EE0FFB
:10069000FF1FEE58FF4FA591B4912FB7F894662332
:1006A00021F48C919095892302C08C91892B8C9395
:1006B0002FBF089508951F920F920FB60F92112425
:1006C0002F933F934F938F939F93EF93FF9380913B
:1006D000C00082FD1DC04091C6002091C301309131
:1006E000C4012F5F3F4F2F7330708091C5019091EF
:1006F000C6012817390771F0E091C301F091C401D8
:10070000ED57FE4F40833093C4012093C30102C0D4
:100710008091C600FF91EF919F918F914F913F91F2
:100720002F910F900FBE0F901F901895E091170218
:10073000F0911802E05CFF4F81919191208131810D
:10074000805C9F4F821B930B60E470E00E9418084E
:10075000892B11F00E945A0308951F920F920FB631
:100760000F9211242F933F938F939F93EF93FF93B7
:1007700020910702309108028091090290910A02AB
:100780002817390731F48091C1008F7D8093C10013
:1007900014C0E0910902F0910A02E953FE4F208152
:1007A0008091090290910A0201968F739070909344
:1007B0000A02809309022093C600FF91EF919F9156
:1007C0008F913F912F910F900FBE0F901F90189512
:1007D000AF92BF92DF92EF92FF920F931F93CF934E
:1007E000DF93EC017A018B01DD24403081EE580764
:1007F00080E0680780E0780711F0DD24D39491E071
:10080000A92EB12CEC89FD89DD2069F0C50108A075
:1008100002C0880F991F0A94E2F7808360E079E0B4
:100820008DE390E005C0108260E874E88EE190E00E
:10083000A80197010E942B082150304040405040B1
:10084000569547953795279580E12030380720F059
:10085000DD2011F0DD24D6CFE889F9893083EA89DB
:10086000FB89208319A2EE89FF89408121E030E0D5
:10087000C9010C8C02C0880F991F0A94E2F7482B1B
:100880004083EE89FF894081C9010D8C02C0880F29
:10089000991F0A94E2F7482B4083EE89FF89408133
:1008A000C9010E8C02C0880F991F0A94E2F7482BE9
:1008B0004083EE89FF8980810F8C02C0220F331F95
:1008C0000A94E2F7209528232083DF91CF911F918E
:1008D0000F91FF90EF90DF90BF90AF900895DC01F3
:1008E0001C96ED91FC911D97E05CFF4F81919191D9
:1008F00020813181805C9F4F821B930B60E470E00C
:100900000E9418080895DC011C96ED91FC911D973A
:10091000E05CFF4F20813181E054F040DF01AE5BAD
:10092000BF4F8D919C9111972817390719F42FEF1C
:100930003FEF07C08D919C91E80FF91F8081282F10
:1009400030E0C9010895DC011C96ED91FC911D97E2
:10095000E05CFF4F20813181E054F040DF01AE5B6D
:10096000BF4F8D919C9111972817390719F42FEFDC
:100970003FEF10C08D919C911197E80FF91F2081D6
:100980008D919C91119701968F73907011969C9305
:100990008E9330E0C9010895DC0191968C91919776
:1009A000882339F05496ED91FC915597808186FF0C
:1009B000F9CF91961C920895CF93DF93EC01EE85C9
:1009C000FF85E05CFF4F20813181E054F0402F5FD4
:1009D0003F4F2F733070DF01AE5BBF4F8D919C9105
:1009E000119728173907D1F3E05CFF4F808191817F
:1009F000E054F040E80FF91F6083EE85FF85E05C6E
:100A0000FF4F31832083EE89FF89208181E090E0D0
:100A10000F8C02C0880F991F0A94E2F7282B2083BD
:100A200081E089A3EC89FD8980818064808381E0F5
:100A300090E0DF91CF91089510920E0210920D0276
:100A400088EE93E0A0E0B0E080930F029093100254
:100A5000A0931102B093120288E691E090930C02E9
:100A600080930B0283E891E0909318028093170221
:100A700087EC91E090931A028093190285EC90E044
:100A800090931C0280931B0284EC90E090931E02D2
:100A900080931D0280EC90E09093200280931F02CF
:100AA00081EC90E0909322028093210282EC90E00E
:100AB000909324028093230286EC90E09093260288
:100AC0008093250284E08093270283E080932802AC
:100AD00087E08093290285E080932A0281E0809359
:100AE0002B0208950895CF93DF930E946A020E941B
:100AF00072050E94AC01C6E9D3E00E94A2002097D3
:100B0000E1F30E949603F9CFCF92DF92EF92FF922A
:100B10000F931F93CF93DF937C016B018A01C0E099
:100B2000D0E00FC0D6016D916D01D701ED91FC9120
:100B30000190F081E02DC7010995C80FD91F015020
:100B400010400115110571F7CE01DF91CF911F9172
:100B50000F91FF90EF90DF90CF900895EF92FF926A
:100B60000F931F938C01DC01ED91FC910190F081BA
:100B7000E02D6DE009957C01D801ED91FC9101908B
:100B8000F081E02DC8016AE009959C012E0D3F1D02
:100B9000C9011F910F91FF90EF900895CF93DF93BC
:100BA000EC016115710519F420E030E00FC0DB01A4
:100BB0000D900020E9F71197A61BB70BE881F9818A
:100BC0000280F381E02DAD0109959C01C901DF91FF
:100BD000CF9108954F925F927F928F929F92AF92A2
:100BE000BF92CF92DF92EF92FF920F931F93DF930A
:100BF000CF93CDB7DEB7A1970FB6F894DEBF0FBE87
:100C0000CDBF2C01742ECB01223008F42AE019A2AA
:100C100031E2C32ED12CCC0EDD1E822E9924AA24C3
:100C2000BB24672D752FA50194010E942B08790123
:100C30008A01C801B701A50194010E94F907472D57
:100C4000461B0894C108D1084A3014F4405D01C025
:100C5000495CF6014083E114F1040105110521F01E
:100C60007E2C5F2DC801DDCFC201B6010E94CE05EA
:100C7000A1960FB6F894DEBF0FBECDBFCF91DF9126
:100C80001F910F91FF90EF90DF90CF90BF90AF90AA
:100C90009F908F907F905F904F900895CF92DF92BA
:100CA000EF92FF920F931F93CF93DF93EC016A01B2
:100CB0007B012115310541F4E881F9810190F08132
:100CC000E02D642F09951FC02A303105D1F477FF3C
:100CD00017C0E881F9810190F081E02D6DE209955E
:100CE0008C0144275527BA014C195D096E097F090B
:100CF000CE012AE00E94EA059801280F391F04C09E
:100D00002AE00E94EA059C01C901DF91CF911F9161
:100D10000F91FF90EF90DF90CF900895EF92FF92A8
:100D20000F931F937C010E944E068C01C7010E9405
:100D3000AE059C01200F311FC9011F910F91FF903B
:100D4000EF900895CF92DF92EF92FF920F931F934F
:100D50006C017B019A010027F7FC0095102FB80168
:100D6000A7010E944E068C01C6010E94AE05080F25
:100D7000191FC8011F910F91FF90EF90DF90CF9046
:100D800008950E94CE050895EF92FF920F931F934E
:100D90007C010E94CE058C01C7010E94AE05080FA0
:100DA000191FC8011F910F91FF90EF90089504D073
:100DB0006894B111B5C0089598D088F09F5790F00D
:100DC000B92F9927B751A0F0D1F0660F771F881F70
:100DD000991F1AF0BA95C9F712C0B13081F09FD0AF
:100DE000B1E008959CC0672F782F8827B85F39F04D
:100DF000B93FCCF3869577956795B395D9F73EF4CF
:100E000090958095709561957F4F8F4F9F4F089576
:100E1000E89409C097FB3EF4909580957095619594
:100E20007F4F8F4F9F4F9923A9F0F92F96E9BB274A
:100E30009395F695879577956795B795F111F8CFC6
:100E4000FAF4BB0F11F460FF1BC06F5F7F4F8F4F31
:100E50009F4F16C0882311F096E911C0772321F027
:100E60009EE8872F762F05C0662371F096E8862FBF
:100E700070E060E02AF09A95660F771F881FDAF716
:100E8000880F9695879597F9089597F99F6780E859
:100E900070E060E008959FEF80EC089500240A94CC
:100EA0001616170618060906089500240A94121645
:100EB0001306140605060895092E0394000C11F478
:100EC000882352F0BB0F40F4BF2B11F460FF04C025
:100ED0006F5F7F4F8F4F9F4F089557FD9058440F7E
:100EE000551F59F05F3F71F04795880F97FB991F89
:100EF00061F09F3F79F08795089512161306140646
:100F0000551FF2CF4695F1DF08C0161617061806D2
:100F1000991FF1CF86957105610508940895E894AD
:100F2000BB2766277727CB0197F908950BD0C4CF4D
:100F3000B5DF28F0BADF18F0952309F0A6CFABCFC4
:100F40001124EECFCADFA0F3959FD1F3950F50E0A7
:100F5000551F629FF001729FBB27F00DB11D639F6B
:100F6000AA27F00DB11DAA1F649F6627B00DA11D11
:100F7000661F829F2227B00DA11D621F739FB00DB7
:100F8000A11D621F839FA00D611D221F749F332727
:100F9000A00D611D231F849F600D211D822F762FC0
:100FA0006A2F11249F5750408AF0E1F088234AF0BD
:100FB000EE0FFF1FBB1F661F771F881F9150504009
:100FC000A9F79E3F510570F060CFAACF5F3FECF3C9
:100FD000983EDCF3869577956795B795F795E795F5
:100FE0009F5FC1F7FE2B880F911D9695879597F906
:100FF0000895629FD001739FF001829FE00DF11D63
:10100000649FE00DF11D929FF00D839FF00D749F82
:10101000F00D659FF00D9927729FB00DE11DF91F2E
:10102000639FB00DE11DF91FBD01CF01112408958B
:1010300097FB092E07260AD077FD04D049D006D0A9
:1010400000201AF4709561957F4F0895F6F79095FA
:1010500081959F4F0895A1E21A2EAA1BBB1BFD018B
:101060000DC0AA1FBB1FEE1FFF1FA217B307E40787
:10107000F50720F0A21BB30BE40BF50B661F771FDF
:10108000881F991F1A9469F76095709580959095BF
:101090009B01AC01BD01CF01089597FB092E0526E8
:1010A0000ED057FD04D0D7DF0AD0001C38F450957D
:1010B0004095309521953F4F4F4F5F4F0895F6F77C
:1010C00090958095709561957F4F8F4F9F4F0895B4
:1010D000AA1BBB1B51E107C0AA1FBB1FA617B7075E
:1010E00010F0A61BB70B881F991F5A95A9F780957A
:1010F0009095BC01CD010895EE0FFF1F0590F4916E
:08110000E02D0994F894FFCFE3
:101108004461726B656E207570004272696768741D
:10111800656E2075700043616C6962726174696EF6
:10112800672E2E2E00446F6E652100746F74616CFB
:10113800203D2000636F756E74203D200061766548
:1011480072616765203D20007468726573686F6C12
:1011580064203D2000687973746572657369732033
:101168003D20000100000000DC0484056F04A30496
:041178008304CC041C
:00000001FF
