:100000000C9435000C945D000C945D000C945D0024
:100010000C945D000C945D000C945D000C945D00EC
:100020000C945D000C945D000C945D000C945D00DC
:100030000C945D000C945D000C945D000C945D00CC
:100040000C94F3000C945D000C94F2010C944402A7
:100050000C945D000C945D000C945D000C945D00AC
:100060000C945D000C945D00B30311241FBECFEF10
:10007000D8E0DEBFCDBF11E0A0E0B1E0ECE8FBE0EE
:1000800002C005900D92A431B107D9F711E0A4E1A7
:10009000B1E001C01D92A33DB107E1F710E0CAE64F
:1000A000D0E004C02297FE010E94C005C836D107E7
:1000B000C9F70E940A040C94C4050C9400006091D6
:1000C000160170911701882777FD8095982F209150
:1000D000140130911501442737FD4095542F620FCC
:1000E000731F841F951F2091180130911901442717
:1000F00037FD4095542F620F731F841F951F209169
:100100001A0130911B01442737FD4095542F620F8F
:10011000731F841F951F20911C0130911D014427DE
:1001200037FD4095542F620F731F841F951F25E0E4
:1001300030E040E050E00E948F05C9010895CF9261
:10014000DF92EF92FF920F931F9380E00E94CF0106
:100150007C0180911E0190911F01FC01EE0FFF1F99
:10016000EC5EFE4FF182E082019665E070E00E9455
:100170005A0590931F0180931E010E945F006C013D
:1001800001EB11E0C801B7014AE050E00E942505EB
:1001900080E0E82E81E0F82EC801B7010E94380502
:1001A000C801B6014AE050E00E942505C801B70128
:1001B0000E943805C8010E94450468EE73E080E0A3
:1001C00090E00E943B011F910F91FF90EF90DF9014
:1001D000CF90089581EB91E040E855E260E070E057
:1001E0000E947F0208951F920F920FB60F92112462
:1001F0002F933F938F939F93AF93BF93809124014D
:1002000090912501A0912601B091270130912801FC
:100210000196A11DB11D232F2D5F2D3720F02D57E5
:100220000196A11DB11D2093280180932401909374
:100230002501A0932601B093270180912001909180
:100240002101A0912201B09123010196A11DB11DB0
:100250008093200190932101A0932201B093230168
:10026000BF91AF919F918F913F912F910F900FBEB2
:100270000F901F9018959B01AC017FB7F894809167
:10028000200190912101A0912201B091230166B536
:10029000A89B05C06F3F19F00196A11DB11D7FBF3E
:1002A000BA2FA92F982F8827860F911DA11DB11D48
:1002B00062E0880F991FAA1FBB1F6A95D1F7BC0186
:1002C0002DC0FFB7F8948091200190912101A09159
:1002D0002201B0912301E6B5A89B05C0EF3F19F0BC
:1002E0000196A11DB11DFFBFBA2FA92F982F8827F6
:1002F0008E0F911DA11DB11DE2E0880F991FAA1F4D
:10030000BB1FEA95D1F7861B970B885E9340C8F216
:10031000215030404040504068517C4F21153105FC
:100320004105510571F60895789484B5826084BDC5
:1003300084B5816084BD85B5826085BD85B58160E9
:1003400085BDEEE6F0E0808181608083E1E8F0E049
:100350001082808182608083808181608083E0E878
:10036000F0E0808181608083E1EBF0E08081846057
:100370008083E0EBF0E0808181608083EAE7F0E059
:1003800080818460808380818260808380818160BD
:1003900080838081806880831092C1000895982FA7
:1003A0008E3008F09E509770809102018295880FE0
:1003B000880F807C892B80937C0080917A008064F8
:1003C00080937A0080917A0086FDFCCF209178009E
:1003D00040917900942F80E030E0282B392BC9011F
:1003E000089508951F920F920FB60F9211242F9324
:1003F0003F934F938F939F93EF93FF938091C00010
:1004000082FD1DC04091C6002091690130916A01B2
:100410002F5F3F4F2F73307080916B0190916C0173
:100420002817390771F0E0916901F0916A01E75DE1
:10043000FE4F408330936A012093690102C080918E
:10044000C600FF91EF919F918F914F913F912F9116
:100450000F900FBE0F901F901895E091BD01F09185
:10046000BE01E05CFF4F8191919120813181805CE0
:100470009F4F821B930B60E470E00E945A05892B0A
:1004800011F00E94F10108951F920F920FB60F9282
:1004900011242F933F938F939F93EF93FF9320917A
:1004A000AD013091AE018091AF019091B00128175C
:1004B000390731F48091C1008F7D8093C10014C051
:1004C000E091AF01F091B001E359FE4F208180919E
:1004D000AF019091B00101968F7390709093B0012D
:1004E0008093AF012093C600FF91EF919F918F9170
:1004F0003F912F910F900FBE0F901F901895AF92C4
:10050000BF92DF92EF92FF920F931F93CF93DF93EF
:10051000EC017A018B01DD24403081EE580780E048
:10052000680780E0780711F0DD24D39491E0A92ECC
:10053000B12CEC89FD89DD2069F0C50108A002C05D
:10054000880F991F0A94E2F7808360E079E08DE3D9
:1005500090E005C0108260E874E88EE190E0A801A8
:1005600097010E946D052150304040405040569503
:1005700047953795279580E12030380720F0DD201A
:1005800011F0DD24D6CFE889F9893083EA89FB8927
:10059000208319A2EE89FF89408121E030E0C90162
:1005A0000C8C02C0880F991F0A94E2F7482B4083F5
:1005B000EE89FF894081C9010D8C02C0880F991F07
:1005C0000A94E2F7482B4083EE89FF894081C901F4
:1005D0000E8C02C0880F991F0A94E2F7482B4083C3
:1005E000EE89FF8980810F8C02C0220F331F0A948D
:1005F000E2F7209528232083DF91CF911F910F915F
:10060000FF90EF90DF90BF90AF900895DC011C96B3
:10061000ED91FC911D97E05CFF4F819191912081BC
:100620003181805C9F4F821B930B60E470E00E94DD
:100630005A050895DC011C96ED91FC911D97E05C34
:10064000FF4F20813181E054F040DF01AE5BBF4FAE
:100650008D919C9111972817390719F42FEF3FEFCF
:1006600007C08D919C91E80FF91F8081282F30E001
:10067000C9010895DC011C96ED91FC911D97E05C89
:10068000FF4F20813181E054F040DF01AE5BBF4F6E
:100690008D919C9111972817390719F42FEF3FEF8F
:1006A00010C08D919C911197E80FF91F20818D91B9
:1006B0009C91119701968F73907011969C938E93D5
:1006C00030E0C9010895DC0191968C9191978823BF
:1006D00039F05496ED91FC915597808186FFF9CFC2
:1006E00091961C920895CF93DF93EC01EE85FF85E0
:1006F000E05CFF4F20813181E054F0402F5F3F4F9D
:100700002F733070DF01AE5BBF4F8D919C911197BD
:1007100028173907D1F3E05CFF4F80819181E054C5
:10072000F040E80FF91F6083EE85FF85E05CFF4F26
:1007300031832083EE89FF89208181E090E00F8C56
:1007400002C0880F991F0A94E2F7282B208381E0CA
:1007500089A3EC89FD8980818064808381E090E0B9
:10076000DF91CF9108951092B4011092B30188EEF9
:1007700093E0A0E0B0E08093B5019093B601A09320
:10078000B701B093B80187E091E09093B2018093F4
:10079000B10189E291E09093BE018093BD018DE6A5
:1007A00091E09093C0018093BF0185EC90E090931D
:1007B000C2018093C10184EC90E09093C4018093C6
:1007C000C30180EC90E09093C6018093C50181EC59
:1007D00090E09093C8018093C70182EC90E09093E1
:1007E000CA018093C90186EC90E09093CC0180937C
:1007F000CB0184E08093CD0183E08093CE0187E03C
:100800008093CF0185E08093D00181E08093D10176
:1008100008950895CF93DF930E9494010E940904E4
:100820000E94EA00CDE2D2E00E949F002097E1F30F
:100830000E942D02F9CFCF92DF92EF92FF920F9399
:100840001F93CF93DF937C016B018A01C0E0D0E05E
:100850000FC0D6016D916D01D701ED91FC91019012
:10086000F081E02DC7010995C80FD91F0150104034
:100870000115110571F7CE01DF91CF911F910F91F5
:10088000FF90EF90DF90CF900895EF92FF920F933B
:100890001F938C01DC01ED91FC910190F081E02D22
:1008A0006DE009957C01D801ED91FC910190F081FA
:1008B000E02DC8016AE009959C012E0D3F1DC9017C
:1008C0001F910F91FF90EF900895CF93DF93EC016C
:1008D0006115710519F420E030E00FC0DB010D90C7
:1008E0000020E9F71197A61BB70BE881F981028078
:1008F000F381E02DAD0109959C01C901DF91CF91F4
:1009000008954F925F927F928F929F92AF92BF9283
:10091000CF92DF92EF92FF920F931F93DF93CF93CB
:10092000CDB7DEB7A1970FB6F894DEBF0FBECDBF2F
:100930002C01742ECB01223008F42AE019A231E2F6
:10094000C32ED12CCC0EDD1E822E9924AA24BB24CA
:10095000672D752FA50194010E946D0579018A010B
:10096000C801B701A50194010E943B05472D461B14
:100970000894C108D1084A3014F4405D01C0495CB4
:10098000F6014083E114F1040105110521F07E2CEC
:100990005F2DC801DDCFC201B6010E946504A1969A
:1009A0000FB6F894DEBF0FBECDBFCF91DF911F9180
:1009B0000F91FF90EF90DF90CF90BF90AF909F90FE
:1009C0008F907F905F904F900895CF92DF92EF923B
:1009D000FF920F931F93CF93DF93EC016A017B018A
:1009E0002115310541F4E881F9810190F081E02D74
:1009F000642F09951FC02A303105D1F477FF17C045
:100A0000E881F9810190F081E02D6DE209958C017A
:100A100044275527BA014C195D096E097F09CE019B
:100A20002AE00E9481049801280F391F04C02AE09F
:100A30000E9481049C01C901DF91CF911F910F9108
:100A4000FF90EF90DF90CF900895EF92FF920F9379
:100A50001F937B019A010027F7FC0095102FB80126
:100A6000A7010E94E5041F910F91FF90EF90089558
:100A70000E9465040895629FD001739FF001829FD8
:100A8000E00DF11D649FE00DF11D929FF00D839F1D
:100A9000F00D749FF00D659FF00D9927729FB00DBA
:100AA000E11DF91F639FB00DE11DF91FBD01CF01CD
:100AB0001124089597FB092E07260AD077FD04D04C
:100AC00049D006D000201AF4709561957F4F0895A3
:100AD000F6F7909581959F4F0895A1E21A2EAA1BD3
:100AE000BB1BFD010DC0AA1FBB1FEE1FFF1FA217DE
:100AF000B307E407F50720F0A21BB30BE40BF50BDB
:100B0000661F771F881F991F1A9469F76095709563
:100B1000809590959B01AC01BD01CF01089597FB95
:100B2000092E05260ED057FD04D0D7DF0AD0001CB1
:100B300038F450954095309521953F4F4F4F5F4F7A
:100B40000895F6F790958095709561957F4F8F4F3A
:100B50009F4F0895AA1BBB1B51E107C0AA1FBB1FD3
:100B6000A617B70710F0A61BB70B881F991F5A9539
:100B7000A9F780959095BC01CD010895EE0FFF1F58
:0C0B80000590F491E02D0994F894FFCF4B
:100B8C000900010000000073031B0406033A031A5A
:040B9C0003630300EC
:00000001FF
