:100000000C9462000C948A000C948A000C948A0070
:100010000C948A000C948A000C948A000C948A0038
:100020000C948A000C948A000C948A000C948A0028
:100030000C948A000C948A000C948A000C948A0018
:100040000C9469010C948A000C945B030C94AD032E
:100050000C948A000C948A000C948A000C948A00F8
:100060000C948A000C948A000000000024002700F1
:100070002A0000000000250028002B0000000000DE
:1000800023002600290004040404040404040202DA
:100090000202020203030303030301020408102007
:1000A0004080010204081020010204081020000012
:1000B0000007000201000003040600000000000029
:1000C00000001C0511241FBECFEFD8E0DEBFCDBF5E
:1000D00011E0A0E0B1E0E4E8FEE002C005900D927E
:1000E000A232B107D9F711E0A2E2B1E001C01D923E
:1000F000A13EB107E1F710E0C4ECD0E004C02297C4
:10010000FE010E943C07C23CD107C9F70E9473055B
:100110000C9440070C94000060912401709125011B
:10012000882777FD8095982F209122013091230117
:10013000442737FD4095542F620F731F841F951F6E
:100140002091260130912701442737FD4095542FF7
:10015000620F731F841F951F209128013091290180
:10016000442737FD4095542F620F731F841F951F3E
:1001700020912A0130912B01442737FD4095542FBF
:10018000620F731F841F951F25E030E040E050E0B0
:100190000E940B07C901089584E061E00E940603F4
:1001A00085E060E00E94060386E060E00E940603AE
:1001B00087E060E00E9406038FEB91E060E071E071
:1001C0000E94A406089584E061E00E94060385E091
:1001D00060E00E94060386E061E00E94060387E07B
:1001E00060E00E9406038FEB91E066E071E00E9400
:1001F000A40608950F931F93CF93DF9385E00E9489
:1002000045028C0180912C0190912D01FC01EE0F93
:10021000FF1FEE5DFE4F11830083019665E070E0E5
:100220000E94D60690932D0180932C010E948C0091
:10023000EC0181E0CD32D8071CF00E94CC0002C056
:100240000E94E3008FEB91E0B8014AE050E00E9489
:100250008E068FEB91E06EE071E00E94A1068FEBBD
:1002600091E0BE014AE050E00E948E068FEB91E0E3
:100270006EE071E00E94A1068FEB91E00E94AE0556
:1002800064E670E080E090E00E94B101DF91CF91E0
:100290001F910F9108958FEB91E040E855E260E0E7
:1002A00070E00E94E80384E061E00E94C70285E0FC
:1002B00061E00E94C70286E061E00E94C70287E019
:1002C00061E00E94C70283E068E270E00E9467027A
:1002D00008951F920F920FB60F9211242F933F9300
:1002E0008F939F93AF93BF9380913201909133018D
:1002F000A0913401B0913501309136010196A11DD4
:10030000B11D232F2D5F2D3720F02D570196A11DF4
:10031000B11D209336018093320190933301A09355
:100320003401B093350180912E0190912F01A0915D
:100330003001B09131010196A11DB11D80932E01B4
:1003400090932F01A0933001B0933101BF91AF91F1
:100350009F918F913F912F910F900FBE0F901F9003
:1003600018959B01AC017FB7F89480912E01909174
:100370002F01A0913001B091310166B5A89B05C055
:100380006F3F19F00196A11DB11D7FBFBA2FA92F94
:10039000982F8827860F911DA11DB11D62E0880F3F
:1003A000991FAA1FBB1F6A95D1F7BC012DC0FFB7CB
:1003B000F89480912E0190912F01A0913001B0917D
:1003C0003101E6B5A89B05C0EF3F19F00196A11DCC
:1003D000B11DFFBFBA2FA92F982F88278E0F911D0F
:1003E000A11DB11DE2E0880F991FAA1FBB1FEA954E
:1003F000D1F7861B970B885E9340C8F2215030409E
:100400004040504068517C4F211531054105510550
:1004100071F60895789484B5826084BD84B5816056
:1004200084BD85B5826085BD85B5816085BDEEE6FC
:10043000F0E0808181608083E1E8F0E010828081DB
:1004400082608083808181608083E0E8F0E0808149
:1004500081608083E1EBF0E0808184608083E0EB69
:10046000F0E0808181608083EAE7F0E08081846051
:1004700080838081826080838081816080838081AD
:10048000806880831092C1000895982F8E3008F004
:100490009E509770809110018295880F880F807C04
:1004A000892B80937C0080917A00806480937A000D
:1004B00080917A0086FDFCCF2091780040917900F0
:1004C000942F80E030E0282B392BC90108951F9329
:1004D000CF93DF93182FEB0161E00E94C7022097B2
:1004E00009F44AC0CF3FD10509F449C0E12FF0E03B
:1004F000E255FF4F84918330C1F0843028F481307D
:1005000051F08230B1F50CC0863019F1873049F1D5
:10051000843079F514C084B5806884BDC7BD33C00C
:1005200084B5806284BDC8BD2EC080918000806883
:1005300080938000D0938900C093880024C080916C
:100540008000806280938000D0938B00C0938A00EB
:100550001AC08091B00080688093B000C093B3004F
:1005600012C08091B00080628093B000C093B4004C
:100570000AC0C038D1051CF4812F60E002C0812F71
:1005800061E00E940603DF91CF911F910895CF9300
:10059000DF93482F50E0CA0186569F4FFC013491EB
:1005A0004A575F4FFA018491882369F190E0880FE0
:1005B000991FFC01E859FF4FA591B491FC01EE5839
:1005C000FF4FC591D491662351F42FB7F8948C91C5
:1005D000932F909589238C93888189230BC0623057
:1005E00061F42FB7F8948C91932F909589238C9375
:1005F0008881832B88832FBF06C09FB7F8948C9186
:10060000832B8C939FBFDF91CF910895482F50E0AB
:10061000CA0182559F4FFC012491CA0186569F4F03
:10062000FC0194914A575F4FFA013491332309F446
:1006300040C0222351F1233071F0243028F42130BE
:10064000A1F0223011F514C02630B1F02730C1F0EE
:100650002430D9F404C0809180008F7703C080914A
:1006600080008F7D8093800010C084B58F7702C09A
:1006700084B58F7D84BD09C08091B0008F7703C0A1
:100680008091B0008F7D8093B000E32FF0E0EE0FFB
:10069000FF1FEE58FF4FA591B4912FB7F894662332
:1006A00021F48C919095892302C08C91892B8C9395
:1006B0002FBF089508951F920F920FB60F92112425
:1006C0002F933F934F938F939F93EF93FF9380913B
:1006D000C00082FD1DC04091C6002091770130917D
:1006E00078012F5F3F4F2F73307080917901909187
:1006F0007A012817390771F0E0917701F0917801BC
:10070000E95CFE4F4083309378012093770102C06B
:100710008091C600FF91EF919F918F914F913F91F2
:100720002F910F900FBE0F901F901895E091CB0165
:10073000F091CC01E05CFF4F81919191208131815A
:10074000805C9F4F821B930B60E470E00E94D60692
:10075000892B11F00E945A0308951F920F920FB631
:100760000F9211242F933F938F939F93EF93FF93B7
:100770002091BB013091BC018091BD019091BE01DF
:100780002817390731F48091C1008F7D8093C10013
:1007900014C0E091BD01F091BE01E558FE4F2081EB
:1007A0008091BD019091BE0101968F7390709093DE
:1007B000BE018093BD012093C600FF91EF919F91F0
:1007C0008F913F912F910F900FBE0F901F90189512
:1007D000AF92BF92DF92EF92FF920F931F93CF934E
:1007E000DF93EC017A018B01DD24403081EE580764
:1007F00080E0680780E0780711F0DD24D39491E071
:10080000A92EB12CEC89FD89DD2069F0C50108A075
:1008100002C0880F991F0A94E2F7808360E079E0B4
:100820008DE390E005C0108260E874E88EE190E00E
:10083000A80197010E94E9062150304040405040F5
:10084000569547953795279580E12030380720F059
:10085000DD2011F0DD24D6CFE889F9893083EA89DB
:10086000FB89208319A2EE89FF89408121E030E0D5
:10087000C9010C8C02C0880F991F0A94E2F7482B1B
:100880004083EE89FF894081C9010D8C02C0880F29
:10089000991F0A94E2F7482B4083EE89FF89408133
:1008A000C9010E8C02C0880F991F0A94E2F7482BE9
:1008B0004083EE89FF8980810F8C02C0220F331F95
:1008C0000A94E2F7209528232083DF91CF911F918E
:1008D0000F91FF90EF90DF90BF90AF900895DC01F3
:1008E0001C96ED91FC911D97E05CFF4F81919191D9
:1008F00020813181805C9F4F821B930B60E470E00C
:100900000E94D6060895DC011C96ED91FC911D977E
:10091000E05CFF4F20813181E054F040DF01AE5BAD
:10092000BF4F8D919C9111972817390719F42FEF1C
:100930003FEF07C08D919C91E80FF91F8081282F10
:1009400030E0C9010895DC011C96ED91FC911D97E2
:10095000E05CFF4F20813181E054F040DF01AE5B6D
:10096000BF4F8D919C9111972817390719F42FEFDC
:100970003FEF10C08D919C911197E80FF91F2081D6
:100980008D919C91119701968F73907011969C9305
:100990008E9330E0C9010895DC0191968C91919776
:1009A000882339F05496ED91FC915597808186FF0C
:1009B000F9CF91961C920895CF93DF93EC01EE85C9
:1009C000FF85E05CFF4F20813181E054F0402F5FD4
:1009D0003F4F2F733070DF01AE5BBF4F8D919C9105
:1009E000119728173907D1F3E05CFF4F808191817F
:1009F000E054F040E80FF91F6083EE85FF85E05C6E
:100A0000FF4F31832083EE89FF89208181E090E0D0
:100A10000F8C02C0880F991F0A94E2F7282B2083BD
:100A200081E089A3EC89FD8980818064808381E0F5
:100A300090E0DF91CF9108951092C2011092C10110
:100A400088EE93E0A0E0B0E08093C3019093C401EE
:100A5000A093C501B093C60185E191E09093C001D8
:100A60008093BF0187E391E09093CC018093CB0109
:100A70008BE791E09093CE018093CD0185EC90E0DF
:100A80009093D0018093CF0184EC90E09093D201B9
:100A90008093D10180EC90E09093D4018093D301B6
:100AA00081EC90E09093D6018093D50182EC90E0A8
:100AB0009093D8018093D70186EC90E09093DA016F
:100AC0008093D90184E08093DB0183E08093DC0193
:100AD00087E08093DD0185E08093DE0181E08093F3
:100AE000DF0108950895CF93DF930E940A020E94C8
:100AF00072050E944B01C6E9D3E00E94FA002097DC
:100B0000E1F30E949603F9CFCF92DF92EF92FF922A
:100B10000F931F93CF93DF937C016B018A01C0E099
:100B2000D0E00FC0D6016D916D01D701ED91FC9120
:100B30000190F081E02DC7010995C80FD91F015020
:100B400010400115110571F7CE01DF91CF911F9172
:100B50000F91FF90EF90DF90CF900895EF92FF926A
:100B60000F931F938C01DC01ED91FC910190F081BA
:100B7000E02D6DE009957C01D801ED91FC9101908B
:100B8000F081E02DC8016AE009959C012E0D3F1D02
:100B9000C9011F910F91FF90EF900895CF93DF93BC
:100BA000EC016115710519F420E030E00FC0DB01A4
:100BB0000D900020E9F71197A61BB70BE881F9818A
:100BC0000280F381E02DAD0109959C01C901DF91FF
:100BD000CF9108954F925F927F928F929F92AF92A2
:100BE000BF92CF92DF92EF92FF920F931F93DF930A
:100BF000CF93CDB7DEB7A1970FB6F894DEBF0FBE87
:100C0000CDBF2C01742ECB01223008F42AE019A2AA
:100C100031E2C32ED12CCC0EDD1E822E9924AA24C3
:100C2000BB24672D752FA50194010E94E906790167
:100C30008A01C801B701A50194010E94B706472D9A
:100C4000461B0894C108D1084A3014F4405D01C025
:100C5000495CF6014083E114F1040105110521F01E
:100C60007E2C5F2DC801DDCFC201B6010E94CE05EA
:100C7000A1960FB6F894DEBF0FBECDBFCF91DF9126
:100C80001F910F91FF90EF90DF90CF90BF90AF90AA
:100C90009F908F907F905F904F900895CF92DF92BA
:100CA000EF92FF920F931F93CF93DF93EC016A01B2
:100CB0007B012115310541F4E881F9810190F08132
:100CC000E02D642F09951FC02A303105D1F477FF3C
:100CD00017C0E881F9810190F081E02D6DE209955E
:100CE0008C0144275527BA014C195D096E097F090B
:100CF000CE012AE00E94EA059801280F391F04C09E
:100D00002AE00E94EA059C01C901DF91CF911F9161
:100D10000F91FF90EF90DF90CF900895EF92FF92A8
:100D20000F931F937B019A010027F7FC0095102F6A
:100D3000B801A7010E944E061F910F91FF90EF90FE
:100D400008950E94CE050895EF92FF920F931F938E
:100D50007C010E94CE058C01C7010E94AE05080FE0
:100D6000191FC8011F910F91FF90EF900895629F86
:100D7000D001739FF001829FE00DF11D649FE00D93
:100D8000F11D929FF00D839FF00D749FF00D659FF4
:100D9000F00D9927729FB00DE11DF91F639FB00DF3
:100DA000E11DF91FBD01CF011124089597FB092E04
:100DB00007260AD077FD04D049D006D000201AF4C7
:100DC000709561957F4F0895F6F7909581959F4FA7
:100DD0000895A1E21A2EAA1BBB1BFD010DC0AA1F7C
:100DE000BB1FEE1FFF1FA217B307E407F50720F094
:100DF000A21BB30BE40BF50B661F771F881F991F0F
:100E00001A9469F760957095809590959B01AC0157
:100E1000BD01CF01089597FB092E05260ED057FD81
:100E200004D0D7DF0AD0001C38F450954095309597
:100E300021953F4F4F4F5F4F0895F6F7909580955E
:100E4000709561957F4F8F4F9F4F0895AA1BBB1BD5
:100E500051E107C0AA1FBB1FA617B70710F0A61BBA
:100E6000B70B881F991F5A95A9F780959095BC01DB
:100E7000CD010895EE0FFF1F0590F491E02D099428
:040E8000F894FFCF14
:100E8400726967687400666F727761726400090042
:100E94000100000000DC0484056F04A3048304CC77
:020EA400040048
:00000001FF
